{
  "contractName": "OnChainSVG",
  "abi": [
    {
      "inputs": [],
      "stateMutability": "nonpayable",
      "type": "constructor"
    },
    {
      "inputs": [
        {
          "internalType": "uint256",
          "name": "uid",
          "type": "uint256"
        }
      ],
      "name": "getSvgImage",
      "outputs": [
        {
          "internalType": "string",
          "name": "",
          "type": "string"
        }
      ],
      "stateMutability": "pure",
      "type": "function"
    }
  ],
  "bytecode": "0x608060405234801561001057600080fd5b506126e5806100206000396000f3fe608060405234801561001057600080fd5b506004361061002b5760003560e01c80636796b7dd14610030575b600080fd5b61004a60048036038101906100459190610339565b610060565b60405161005791906103f6565b60405180910390f35b6060600061006d836100dd565b905060006040518061096001604052806109318152602001611d7f610931913990506000604051806118c0016040528061189b81526020016104e461189b913990508183826040516020016100c493929190610454565b6040516020818303038152906040529350505050919050565b6060600060016100ec846101ab565b01905060008167ffffffffffffffff81111561010b5761010a610485565b5b6040519080825280601f01601f19166020018201604052801561013d5781602001600182028036833780820191505090505b509050600082602001820190505b6001156101a0578080600190039150507f3031323334353637383961626364656600000000000000000000000000000000600a86061a8153600a8581610194576101936104b4565b5b0494506000850361014b575b819350505050919050565b600080600090507a184f03e93ff9f4daa797ed6e38ed64bf6a1f0100000000000000008310610209577a184f03e93ff9f4daa797ed6e38ed64bf6a1f01000000000000000083816101ff576101fe6104b4565b5b0492506040810190505b6d04ee2d6d415b85acef81000000008310610246576d04ee2d6d415b85acef8100000000838161023c5761023b6104b4565b5b0492506020810190505b662386f26fc10000831061027557662386f26fc10000838161026b5761026a6104b4565b5b0492506010810190505b6305f5e100831061029e576305f5e1008381610294576102936104b4565b5b0492506008810190505b61271083106102c35761271083816102b9576102b86104b4565b5b0492506004810190505b606483106102e657606483816102dc576102db6104b4565b5b0492506002810190505b600a83106102f5576001810190505b80915050919050565b600080fd5b6000819050919050565b61031681610303565b811461032157600080fd5b50565b6000813590506103338161030d565b92915050565b60006020828403121561034f5761034e6102fe565b5b600061035d84828501610324565b91505092915050565b600081519050919050565b600082825260208201905092915050565b60005b838110156103a0578082015181840152602081019050610385565b60008484015250505050565b6000601f19601f8301169050919050565b60006103c882610366565b6103d28185610371565b93506103e2818560208601610382565b6103eb816103ac565b840191505092915050565b6000602082019050818103600083015261041081846103bd565b905092915050565b600081905092915050565b600061042e82610366565b6104388185610418565b9350610448818560208601610382565b80840191505092915050565b60006104608286610423565b915061046c8285610423565b91506104788284610423565b9150819050949350505050565b7f4e487b7100000000000000000000000000000000000000000000000000000000600052604160045260246000fd5b7f4e487b7100000000000000000000000000000000000000000000000000000000600052601260045260246000fdfe5d5d3e3c2f747370616e3e3c2f746578743e3c7374796c653e3c215b43444154415b40666f6e742d66616365207b666f6e742d66616d696c793a2027655932476a50376b355374313a3a3a536f757263652053616e732050726f273b666f6e742d7374796c653a206e6f726d616c3b666f6e742d7765696768743a203730303b7372633a2075726c28646174613a666f6e742f7474663b636861727365743d7574662d383b6261736536342c414145414141414e41494141417742515230524652674153414251414141446341414141466b645154314e53446b4733414141486141414141787848553156435a6e553268774141417951414141484954314d764d6c7842647134414141484d4141414159474e745958414345414d35414141436f4141414149526e62486c6d6e68456676514141436f514141416451614756685a42742f4874514141414659414141414e6d686f5a57454b66775863414141424e4141414143526f625852344d5230464167414141697741414142306247396a5952326748395941414147514141414150473168654841414e5144334141414139414141414342755957316c55755a7533674141424f774141414a386347397a64502f524144494141414555414141414941414241414141444141414141414141414143414145414167415441414541414141424141414148514351414177415977414841414541414141414141414141414141414141414241414441414d41414141414141442f7a674179414141414141414141414141414141414141414141414141414141414151414141396a2b37774141434a6a2b4e2f343343473041415141414141414141414141414141414141414141423041415141414141494c68645a7438343566447a7a314141454436414141414144595861434541414141414e316d4c7a622b4e2f3745434730443851414241414d41416741414141414141414141414377414c414267414977417a414464415134425141467a415838426c77477a416555434277497a416c4d436a674b7a4174554442414d5141796f4452414e4d4132594467414f4a413549447141414441696f43764141464141414369674a594141414153774b4b416c674141414665414449424b5141414167734841774d454177494342414141414363414141414441414141414141414141424252454a50414341414950372f4175372f426741414139674245534141415a384141414141416641436c4141414143414141774b794146414179414141416c304154514a47414334434c41416a4169774147514939414545435051416e416759414a414555414463434a4142424152344151514e5a4145454350414242416973414a41474f41454542757741564158384145514934414477434351414d41525141515146594145674257414177415251414e77454d414438424441416a415177415077454d41434d4141502b74414141414167414141414d414141415541414d41415141414142514142414277414141414741415141414d414341416741436b4151774255414749415a5142704147384164514235414b442f2f774141414341414b41424341464d415967426b41476b416177427941486b416f502f2f2f2b482f37662f412f37482f70502b6a2f36442f6e2f2b642f35722f595141424141414141414141414141414141414141414141414141414141414141414141414145414141414b414b41425441414552455a4d5641434759336c79624142325a334a6c6177426d62474630626741614145414141304661525341414d6b4e53564341414a46525353794141466741412f2f38414241414741413041454141584141442f2f77414541415541444141504142594141502f2f414151414241414c41413441465141412f2f38414177414441416f41464141454141414141502f2f41414d414167414a41424d41424141414141442f2f774144414145414341415341415141414141412f2f38414177414141416341455141595a4735766251436d5a4735766251436d5a4735766251436d5a4735766251436d5a4735766251436d5a4735766251436d5a4735766251436d5a6e4a68597743655a6e4a68597743655a6e4a68597743655a6e4a68597743655a6e4a68597743655a6e4a68597743655a6e4a68597743656247396a624143596247396a624143596247396a62414359626e567463674353626e567463674353626e567463674353626e567463674353626e567463674353626e567463674353626e56746367435341414141415141424141414141514141414141414167414241414d4141414142414149414251426f4146494152414161414177414151414141414541434141424143442f2f674147414141414151414941414d4141514161414145414567414141414541414141454141454141674161414273414151414341426741475141424141414141514149414145414641414441414541414141424141674141514147414155414151414341425541466741424141414141514149414145414267414f414145414151414a414141414341426d41414d414151514a414141417867465141414d414151514a414145414867457941414d414151514a414149414341457141414d414151514a41414d415267446b41414d414151514a414151414b41433841414d414151514a414155415a41425941414d414151514a414159414a41413041414d414151514a414134414e4141414147674164414230414841414f674176414338416377426a4148494161514277414851416377417541484d41615142734143344162774279414763414c7742504145594154414254414738416451427941474d415a514254414745416267427a41464141636742764143304151674276414777415a414257414755416367427a41476b4162774275414341414d674175414441414e414131414473416141427641485141597742764147344164674167414445414c674177414334414d51417741446b414f774274414745416177426c414738416441426d414755416541426c414341414d674175414455414c674132414455414e5141354144594155774276414855416367426a4147554149414254414745416267427a41434141554142794147384149414243414738416241426b414449414c674177414451414e5141374145454152414243414538414f774254414738416451427941474d415a514254414745416267427a41464141636742764143304151674276414777415a41413741454541524142504145494152514243414738416241426b41464d4162774231414849415977426c414341415577426841473441637741674146414163674276414b6b4149414179414441414d514177414341414c514167414449414d41417841446741494142424147514162774269414755414941425441486b4163774230414755416251427a414341415351427541474d41627742794148414162774279414745416441426c414751414941416f4147674164414230414841414f6741764143384164774233414863414c6742684147514162774269414755414c67426a414738416251417641436b414c41416741486341615142304147674149414253414755416377426c414849416467426c414751414941424741473841626742304143414154674268414730415a5141674942674155774276414855416367426a4147556747514175414145414141414b414651416441414552455a4d5641412b59336c79624141795a334a6c6177416d624746306267416141415141414141412f2f38414151414441415141414141412f2f38414151414341415141414141412f2f38414151414241415141414141412f2f384141514141414152725a584a75414270725a584a75414270725a584a75414270725a584a7541426f4141414142414141414151414541416b414141414341624941436741424141494141414149414149424d414145414141426467464741417741444141412f2b542f33662f4c2f2b3441414141414141414141414141414141414141414141414141414141414141414141414141414141414141414141414141414141414141414141502f6b4141414141414141414141414141414141414141414141414141442f35762f4641414141414141412f2f674141502f3741414141414141412f2f59414141414141414141414141414141634141502f3441414141414141414141442f37502f6b4141414141414141414141414141414141414141414141414141442f35502f734141414141502f75414141414141414141414141414141412f2b372f37502f7541414141414141414141414141502f3241414141414141412f37542f394141412f39622f35502f6e2f2b674141502f452f395941414141414141414141502f734141414141414141414141414141414141414141414141412f2f674141502f73414141414141414141414141414141414141414141414141414141414141414141414141414141414141414141414141414141414141414341414d4142414147414141414367415441414d41465141564141304141514144414255414251414741414d41414141424141454143774141414141414367414b414145414367414a414149414241414841414141414141494141734141514145414249414267414941414d414141414141414141414141424141494141674144414151414251414841416b4143674141414173414151414341414141434141434149674142414141414d67416d41414641417741414141412f2f622f354141414141442f37762f75414141414141414141414141414141412f397a2f39502f624141442f37762f6b4141442f39674141414141414141414141414141414141414141414141414141414141414141414141414141414141412f2f622f354141414141442f2b762f734141414141414141414141414141414141414141414141414141414141414141414141414141414141414141415141474141494141774148414167414351415841414541417741564141514142774144414141414341414941416f41414141414141734143774149414173414251414341416b4142674141414141414151414b414149414251414441414d41415141484141634141674149414167414177414a41416b414241415841426341424141464146414141414a69417051414177414a41413841456741564141417a455345524a544d6e4a794d484e7a4d334e794d58417a636e41524548554149532f71576b4a796b454b536b454b694359483370665877464e58674b552f57786254574a69396c38374f2f36657562722b6a51467a756741414177424e4141414350414b4d41424541476741694141417a45544d794668595646415948465259574652514742694d444d7a49324e54516d49794d524d7a49314e43596a49303366524778414c53677951305279523139464e6a45794e455a546554773955774b4d4855592f4b314d504241314c51554e554b5147484b694d6d495035595743736c414141424143372f3941497741706741477741414253496d4a6a55304e6a597a4d6859584279596d4979494742685555466a4d794e6a635842674664556f7054565931535032516854686b334979784a4b315a494b443859546c494d544a5674624a6c524d794a6546783079586b4a6b6343515a584741414151416a2f2f514343674b5941436f41414155694a6963334668597a4d6a59314e43596e4a7934434e5451324e6a4d79466863484a69596a49675956464259584678595746525147426745555148387956434e574b4334744d7974564954776d4f326c454f484171537942414a7959744f5370554f305936626777774c6d55654a694964487830534a41347652693832574451734b6c305a47783863486834524968685552545a634f41414241426b4141414954416f7741427741414d78456a4e5345564978484d737748367377495166487a3938414141416742422f2f514346674b3941425141487741414253496d4a794d484978457a465163324e6a4d7946685956464159474a7a49324e54516a4967635646685942525346444851514d63354d454855516950466776504639594a6a5a574c436b554b417768494455437661784d4768302b6355785665543934526b79474c637353446741434143662f39414838417230414577416741414158496959314e4459324d7a4957467963314d78456a4a794d47426a63794e6a63314a69596a496759564642627958473837587a51704f426b476b33674b424270474168676e45684d7246434d324c77794c6556463150687759544b6e39517a45614933675547637353446b4e48535555414167416b2f2f51423451483841426741487741414253496d4a6a55304e6a597a4d6859574652514742794557466a4d794e78634742674d7a4e43596a4967594248306479516b4e734f3064644c7751432f74634b526a45314e6a456d5870717a4a7977694e67772b64464a526444382f613051544a516b324d79465a476834424f696b314c77442f2f7741334141414133514c544169594146414141414163414841434b41414141415142424141414348674b394141774141444d524d78457a4e7a4d4845794d6e427856426a7753646f4b36376e33412f4172332b6273584d2f747a4252336f41415142422f2f514245674b3941413841414263694a6a55524d784555466a4d794e6a6358426762495444755445516b46427759534443554d57307343492f33584678494241573046427741424145454141414d6441667741495141414d78457a467a4d324e6a4d79466863324e6a4d7946685552497845304a694d694278456a4554516d497949484555463443675166526a453151524d68536a465153354d64494355776b7830674a533842384541664c53736f496a46725866374d415345324b44442b735145684e6967772f7245414151424241414143414148384142514141444d524d78637a4e6a597a4d68595645534d524e43596a49675948455546344367516754544a52535a4d644942776f47414877507834746131332b7a4145684e69675a462f3678414141434143542f394149484166774144774162414141464969596d4e5451324e6a4d7946685956464159474a7a49324e54516d49794947465251574152592f62305245627a382f626b5245626a38744c6934744c69307444443131556c4e305054313055314a315058644e5145464d544546415451414141514242414141426a7748384142494141444d524d78637a4e6a597a4d6859584279596d497949474278464265416f454730776d4652774b4741305a4542773946414877567a49784251562f424151704d7637674141454146662f30415a38422f41416e414141584969596e4e7859574d7a49324e54516d4a696375416a55304e6a4d79466863484a69596a49685555466863654168555542744d785a795a43496a3866495234644c686f654f79687056546c58483049614e426f354f53596750536c6f4443596658426b6246784d5246684d4b444351354b5556574a7868594642596e47426b4f43794d354c6b4e64414141424142482f39414675416e5141467741414253496d4e54556a4e5463334d78557a46534d564642597a4d6a593346775947415142635430524d4558703364794d6444426b4b46784d3344477057795730476849527a78796f6c42675272426777414141454150502f304166674238414155414141584969593145544d524642597a4d6a593345544d524979636a4267625755556d54486941634a6861546541734448306f4d613130424e5037664e536b61485146492f6842464a5377414151414d2f7a34422f51487741427341414263694a6963334668597a4d6a59334e774d7a46785957467a4d324e6a63334d774d4f416e675749513861427849494a53674b42372b55527773534367514945516b386a6177584f452f43426752774151556b48526f42343955695269556a527950562f67732b56536f414141454151514141414e5142384141444141417a45544d52515a4d4238503451414145415350394e415367433377414e414141584a6959314e44593346775947465251574638772f5255552f584463794d6a657a5a393645684e356e4a6d485861327258596741424144442f545145514174384144514141467963324e6a55304a696333466859564641614d584467794d6a68635030564673795a69313270723132456d5a393645684e372f2f7741334141414133514c54416759414351414141414541502f2b6d414f6b423451414e414141584a6959314e445933467759474652515746356f724d4441725479496949694a61516f4a6157594a434944313951304e39506741424143502f7067444e4165454144514141467963324e6a55304a6963334668595646415a7a5543496949694a514b7938765769412b66554e4466543067516f4a5a576f4c2f2f77412f414b774136514c6e41676341474141414151622f2f77416a414b77417a514c6e41676341475141414151594141662b74416a6b4155774c5441417341414245694a6a55304e6a4d7946685555426955754c69556c4c6934434f536f6a49796f7149794d7141413d3d2920666f726d61742827747275657479706527293b7d5d5d3e3c2f7374796c653e3c2f7376673e3c7376672069643d22655932476a50376b355374312220786d6c6e733d22687474703a2f2f7777772e77332e6f72672f323030302f7376672220786d6c6e733a786c696e6b3d22687474703a2f2f7777772e77332e6f72672f313939392f786c696e6b222076696577426f783d22302030203531312e393939203531312e393939222073686170652d72656e646572696e673d2267656f6d6574726963507265636973696f6e2220746578742d72656e646572696e673d2267656f6d6574726963507265636973696f6e222077696474683d223531312e39393922206865696768743d223531312e393939223e3c7061746820643d224d3436302e3830332c3434362e373339682d3430392e3630364332322e3936372c3434362e3733392c302c3432332e3737322c302c3339352e353432762d3237392e30383543302c38382e3232372c32322e3936372c36352e32362c35312e3139372c36352e3236683430392e3630356332382e32332c302c35312e3139372c32322e3936372c35312e3139372c35312e313937763237392e303834632e3030312c32382e3233312d32322e3936362c35312e3139382d35312e3139362c35312e3139385a222066696c6c3d2223333961336462222f3e3c7061746820643d224d3436302e3830332c36352e3236682d3230342e383034763338312e343739683230342e3830326332382e32332c302c35312e3139372d32322e3936372c35312e3139372d35312e313937762d3237392e303835433531322c38382e3232372c3438392e3033332c36352e32362c3436302e3830332c36352e32365a222066696c6c3d2223333739376433222f3e3c7061746820643d224d3233372e3431332c3338312e313434682d3135362e313232632d31302e3236342c302d31382e3538362d382e3332322d31382e3538362d31382e353836762d3231332e31313963302d31302e3236342c382e3332322d31382e3538362c31382e3538362d31382e353836683135362e3132326331302e3236342c302c31382e3538362c382e3332322c31382e3538362c31382e353836763231332e31313963302c31302e3236362d382e33322c31382e3538362d31382e3538362c31382e3538365a222066696c6c3d2223383064306531222f3e3c673e3c636972636c6520723d2232372e32303422207472616e73666f726d3d227472616e736c617465283135392e333536203233372e33353529222066696c6c3d2223653866326662222f3e3c7061746820643d224d3136302e3431342c3238352e353539632d34302e3236312c302d37332e3330362c33302e392d37362e37312c37302e3237392d2e3331322c332e3631342c322e3535362c362e3732312c362e3138342c362e373231683134312e30353363332e3632382c302c362e3439362d332e3130362c362e3138342d362e3732312d332e3430352d33392e3337382d33362e3434392d37302e3237392d37362e3731312d37302e3237395a222066696c6c3d2223653866326662222f3e3c2f673e3c7061746820643d224d3433392e3030342c3233342e353836682d3134372e3138632d31302e3236342c302d31382e3538362d382e3332322d31382e3538362d31382e353836762d36362e35363163302d31302e3236342c382e3332322d31382e3538362c31382e3538362d31382e353836683134372e31386331302e3236342c302c31382e3538362c382e3332322c31382e3538362c31382e3538367636362e35363163302c31302e3236352d382e3332312c31382e3538362d31382e3538362c31382e3538365a22207472616e73666f726d3d226d617472697828312e30363537352030203020312e31353431362d32332e3134323833332d31342e37353032373829222066696c6c3d2223353162336461222f3e3c7061746820643d224d3433392e3030342c3238342e343937682d3134372e3138632d31302e3236342c302d31382e3538362d382e3332322d31382e3538362d31382e35383673382e3332322d31382e3538362c31382e3538362d31382e353836683134372e31386331302e3236342c302c31382e3538362c382e3332322c31382e3538362c31382e35383663302c31302e3236362d382e3332312c31382e3538362d31382e3538362c31382e3538365a22207472616e73666f726d3d226d617472697828312e3037353333312030203020312e3532363339352d32352e3736303732362d38312e38323632323129222066696c6c3d2223353162336461222f3e3c746578742064783d2230222064793d22302220666f6e742d66616d696c793d222671756f743b655932476a50376b355374313a3a3a536f757263652053616e732050726f2671756f743b2220666f6e742d73697a653d2232352e35393939352220666f6e742d7765696768743d2237303022207472616e73666f726d3d227472616e736c617465283237302e363036393738203138302e303431353529222066696c6c3d222366666622207374726f6b652d77696474683d2230223e3c747370616e20793d22302220666f6e742d7765696768743d2237303022207374726f6b652d77696474683d2230223e3c215b43444154415b4372656469742053797374656d5d5d3e3c2f747370616e3e3c747370616e20783d22302220793d2232352e35393939352220666f6e742d7765696768743d2237303022207374726f6b652d77696474683d2230223e3c215b43444154415b536f756c626f756e6420546f6b656e5d5d3e3c2f747370616e3e3c747370616e20783d22302220793d2235312e313939392220666f6e742d7765696768743d2237303022207374726f6b652d77696474683d2230223e3c215b43444154415b284353534254295d5d3e3c2f747370616e3e3c2f746578743e3c746578742064783d2230222064793d22302220666f6e742d66616d696c793d222671756f743b655932476a50376b355374313a3a3a536f757263652053616e732050726f2671756f743b2220666f6e742d73697a653d2232352e35393939352220666f6e742d7765696768743d2237303022207472616e73666f726d3d227472616e736c617465283239352e363933363739203333322e34343530393429222066696c6c3d222366666622207374726f6b652d77696474683d2230223e3c747370616e20793d22302220666f6e742d7765696768743d2237303022207374726f6b652d77696474683d2230223e3c215b43444154415ba26469706673582212202768012326fcab6fbb4815525c6bdb65726e6d6ec66ef5be846e0bbb18197ae564736f6c63430008130033",
  "immutableReferences": {},
  "source": "// SPDX-License-Identifier: MIT\npragma solidity >=0.4.22 <0.9.0;\nimport \"@openzeppelin/contracts/utils/Strings.sol\";\n\ncontract OnChainSVG {\n\tconstructor() {}\n\n\tfunction getSvgImage(uint uid) external pure returns (string memory){\n\t\tstring memory uid_str = Strings.toString(uid);\n\t\tstring memory a = '<svg id=\"eY2GjP7k5St1\" xmlns=\"http://www.w3.org/2000/svg\" xmlns:xlink=\"http://www.w3.org/1999/xlink\" viewBox=\"0 0 511.999 511.999\" shape-rendering=\"geometricPrecision\" text-rendering=\"geometricPrecision\" width=\"511.999\" height=\"511.999\"><path d=\"M460.803,446.739h-409.606C22.967,446.739,0,423.772,0,395.542v-279.085C0,88.227,22.967,65.26,51.197,65.26h409.605c28.23,0,51.197,22.967,51.197,51.197v279.084c.001,28.231-22.966,51.198-51.196,51.198Z\" fill=\"#39a3db\"/><path d=\"M460.803,65.26h-204.804v381.479h204.802c28.23,0,51.197-22.967,51.197-51.197v-279.085C512,88.227,489.033,65.26,460.803,65.26Z\" fill=\"#3797d3\"/><path d=\"M237.413,381.144h-156.122c-10.264,0-18.586-8.322-18.586-18.586v-213.119c0-10.264,8.322-18.586,18.586-18.586h156.122c10.264,0,18.586,8.322,18.586,18.586v213.119c0,10.266-8.32,18.586-18.586,18.586Z\" fill=\"#80d0e1\"/><g><circle r=\"27.204\" transform=\"translate(159.356 237.355)\" fill=\"#e8f2fb\"/><path d=\"M160.414,285.559c-40.261,0-73.306,30.9-76.71,70.279-.312,3.614,2.556,6.721,6.184,6.721h141.053c3.628,0,6.496-3.106,6.184-6.721-3.405-39.378-36.449-70.279-76.711-70.279Z\" fill=\"#e8f2fb\"/></g><path d=\"M439.004,234.586h-147.18c-10.264,0-18.586-8.322-18.586-18.586v-66.561c0-10.264,8.322-18.586,18.586-18.586h147.18c10.264,0,18.586,8.322,18.586,18.586v66.561c0,10.265-8.321,18.586-18.586,18.586Z\" transform=\"matrix(1.06575 0 0 1.15416-23.142833-14.750278)\" fill=\"#51b3da\"/><path d=\"M439.004,284.497h-147.18c-10.264,0-18.586-8.322-18.586-18.586s8.322-18.586,18.586-18.586h147.18c10.264,0,18.586,8.322,18.586,18.586c0,10.266-8.321,18.586-18.586,18.586Z\" transform=\"matrix(1.075331 0 0 1.526395-25.760726-81.826221)\" fill=\"#51b3da\"/><text dx=\"0\" dy=\"0\" font-family=\"&quot;eY2GjP7k5St1:::Source Sans Pro&quot;\" font-size=\"25.59995\" font-weight=\"700\" transform=\"translate(270.606978 180.04155)\" fill=\"#fff\" stroke-width=\"0\"><tspan y=\"0\" font-weight=\"700\" stroke-width=\"0\"><![CDATA[Credit System]]></tspan><tspan x=\"0\" y=\"25.59995\" font-weight=\"700\" stroke-width=\"0\"><![CDATA[Soulbound Token]]></tspan><tspan x=\"0\" y=\"51.1999\" font-weight=\"700\" stroke-width=\"0\"><![CDATA[(CSSBT)]]></tspan></text><text dx=\"0\" dy=\"0\" font-family=\"&quot;eY2GjP7k5St1:::Source Sans Pro&quot;\" font-size=\"25.59995\" font-weight=\"700\" transform=\"translate(295.693679 332.445094)\" fill=\"#fff\" stroke-width=\"0\"><tspan y=\"0\" font-weight=\"700\" stroke-width=\"0\"><![CDATA[';\n\t\tstring memory b =  \"]]></tspan></text><style><![CDATA[@font-face {font-family: 'eY2GjP7k5St1:::Source Sans Pro';font-style: normal;font-weight: 700;src: url(data:font/ttf;charset=utf-8;base64,AAEAAAANAIAAAwBQR0RFRgASABQAAADcAAAAFkdQT1NSDkG3AAAHaAAAAxxHU1VCZnU2hwAAAyQAAAHIT1MvMlxBdq4AAAHMAAAAYGNtYXACEAM5AAACoAAAAIRnbHlmnhEfvQAACoQAAAdQaGVhZBt/HtQAAAFYAAAANmhoZWEKfwXcAAABNAAAACRobXR4MR0FAgAAAiwAAAB0bG9jYR2gH9YAAAGQAAAAPG1heHAANQD3AAAA9AAAACBuYW1lUuZu3gAABOwAAAJ8cG9zdP/RADIAAAEUAAAAIAABAAAADAAAAAAAAAACAAEAAgATAAEAAAABAAAAHQCQAAwAYwAHAAEAAAAAAAAAAAAAAAAABAADAAMAAAAAAAD/zgAyAAAAAAAAAAAAAAAAAAAAAAAAAAAAAQAAA9j+7wAACJj+N/43CG0AAQAAAAAAAAAAAAAAAAAAAB0AAQAAAAILhdZt845fDzz1AAED6AAAAADYXaCEAAAAAN1mLzb+N/7ECG0D8QABAAMAAgAAAAAAAAAAACwALABgAIwAzADdAQ4BQAFzAX8BlwGzAeUCBwIzAlMCjgKzAtUDBAMQAyoDRANMA2YDgAOJA5IDqAADAioCvAAFAAACigJYAAAASwKKAlgAAAFeADIBKQAAAgsHAwMEAwICBAAAACcAAAADAAAAAAAAAABBREJPACAAIP7/Au7/BgAAA9gBESAAAZ8AAAAAAfAClAAAACAAAwKyAFAAyAAAAl0ATQJGAC4CLAAjAiwAGQI9AEECPQAnAgYAJAEUADcCJABBAR4AQQNZAEECPABBAisAJAGOAEEBuwAVAX8AEQI4ADwCCQAMARQAQQFYAEgBWAAwARQANwEMAD8BDAAjAQwAPwEMACMAAP+tAAAAAgAAAAMAAAAUAAMAAQAAABQABABwAAAAGAAQAAMACAAgACkAQwBUAGIAZQBpAG8AdQB5AKD//wAAACAAKABCAFMAYgBkAGkAawByAHkAoP///+H/7f/A/7H/pP+j/6D/n/+d/5r/YQABAAAAAAAAAAAAAAAAAAAAAAAAAAAAAAAAAAEAAAAKAKABTAAEREZMVACGY3lybAB2Z3JlawBmbGF0bgAaAEAAA0FaRSAAMkNSVCAAJFRSSyAAFgAA//8ABAAGAA0AEAAXAAD//wAEAAUADAAPABYAAP//AAQABAALAA4AFQAA//8AAwADAAoAFAAEAAAAAP//AAMAAgAJABMABAAAAAD//wADAAEACAASAAQAAAAA//8AAwAAAAcAEQAYZG5vbQCmZG5vbQCmZG5vbQCmZG5vbQCmZG5vbQCmZG5vbQCmZG5vbQCmZnJhYwCeZnJhYwCeZnJhYwCeZnJhYwCeZnJhYwCeZnJhYwCeZnJhYwCebG9jbACYbG9jbACYbG9jbACYbnVtcgCSbnVtcgCSbnVtcgCSbnVtcgCSbnVtcgCSbnVtcgCSbnVtcgCSAAAAAQABAAAAAQAAAAAAAgABAAMAAAABAAIABQBoAFIARAAaAAwAAQAAAAEACAABACD//gAGAAAAAQAIAAMAAQAaAAEAEgAAAAEAAAAEAAEAAgAaABsAAQACABgAGQABAAAAAQAIAAEAFAADAAEAAAABAAgAAQAGAAUAAQACABUAFgABAAAAAQAIAAEABgAOAAEAAQAJAAAACABmAAMAAQQJAAAAxgFQAAMAAQQJAAEAHgEyAAMAAQQJAAIACAEqAAMAAQQJAAMARgDkAAMAAQQJAAQAKAC8AAMAAQQJAAUAZABYAAMAAQQJAAYAJAA0AAMAAQQJAA4ANAAAAGgAdAB0AHAAOgAvAC8AcwBjAHIAaQBwAHQAcwAuAHMAaQBsAC4AbwByAGcALwBPAEYATABTAG8AdQByAGMAZQBTAGEAbgBzAFAAcgBvAC0AQgBvAGwAZABWAGUAcgBzAGkAbwBuACAAMgAuADAANAA1ADsAaABvAHQAYwBvAG4AdgAgADEALgAwAC4AMQAwADkAOwBtAGEAawBlAG8AdABmAGUAeABlACAAMgAuADUALgA2ADUANQA5ADYAUwBvAHUAcgBjAGUAIABTAGEAbgBzACAAUAByAG8AIABCAG8AbABkADIALgAwADQANQA7AEEARABCAE8AOwBTAG8AdQByAGMAZQBTAGEAbgBzAFAAcgBvAC0AQgBvAGwAZAA7AEEARABPAEIARQBCAG8AbABkAFMAbwB1AHIAYwBlACAAUwBhAG4AcwAgAFAAcgBvAKkAIAAyADAAMQAwACAALQAgADIAMAAxADgAIABBAGQAbwBiAGUAIABTAHkAcwB0AGUAbQBzACAASQBuAGMAbwByAHAAbwByAGEAdABlAGQAIAAoAGgAdAB0AHAAOgAvAC8AdwB3AHcALgBhAGQAbwBiAGUALgBjAG8AbQAvACkALAAgAHcAaQB0AGgAIABSAGUAcwBlAHIAdgBlAGQAIABGAG8AbgB0ACAATgBhAG0AZQAgIBgAUwBvAHUAcgBjAGUgGQAuAAEAAAAKAFQAdAAEREZMVAA+Y3lybAAyZ3JlawAmbGF0bgAaAAQAAAAA//8AAQADAAQAAAAA//8AAQACAAQAAAAA//8AAQABAAQAAAAA//8AAQAAAARrZXJuABprZXJuABprZXJuABprZXJuABoAAAABAAAAAQAEAAkAAAACAbIACgABAAIAAAAIAAIBMAAEAAABdgFGAAwADAAA/+T/3f/L/+4AAAAAAAAAAAAAAAAAAAAAAAAAAAAAAAAAAAAAAAAAAAAAAAAAAAAAAAAAAP/kAAAAAAAAAAAAAAAAAAAAAAAAAAD/5v/FAAAAAAAA//gAAP/7AAAAAAAA//YAAAAAAAAAAAAAAAcAAP/4AAAAAAAAAAD/7P/kAAAAAAAAAAAAAAAAAAAAAAAAAAD/5P/sAAAAAP/uAAAAAAAAAAAAAAAA/+7/7P/uAAAAAAAAAAAAAP/2AAAAAAAA/7T/9AAA/9b/5P/n/+gAAP/E/9YAAAAAAAAAAP/sAAAAAAAAAAAAAAAAAAAAAAAA//gAAP/sAAAAAAAAAAAAAAAAAAAAAAAAAAAAAAAAAAAAAAAAAAAAAAAAAAAAAAACAAMABAAGAAAACgATAAMAFQAVAA0AAQADABUABQAGAAMAAAABAAEACwAAAAAACgAKAAEACgAJAAIABAAHAAAAAAAIAAsAAQAEABIABgAIAAMAAAAAAAAAAAABAAIAAgADAAQABQAHAAkACgAAAAsAAQACAAAACAACAIgABAAAAMgAmAAFAAwAAAAA//b/5AAAAAD/7v/uAAAAAAAAAAAAAAAA/9z/9P/bAAD/7v/kAAD/9gAAAAAAAAAAAAAAAAAAAAAAAAAAAAAAAAAAAAAAAAAA//b/5AAAAAD/+v/sAAAAAAAAAAAAAAAAAAAAAAAAAAAAAAAAAAAAAAAAAAAAAQAGAAIAAwAHAAgACQAXAAEAAwAVAAQABwADAAAACAAIAAoAAAAAAAsACwAIAAsABQACAAkABgAAAAAAAQAKAAIABQADAAMAAQAHAAcAAgAIAAgAAwAJAAkABAAXABcABAAFAFAAAAJiApQAAwAJAA8AEgAVAAAzESERJTMnJyMHNzM3NyMXAzcnAREHUAIS/qWkJykEKSkEKiCYH3pfXwFNXgKU/WxbTWJi9l87O/6eubr+jQFzugAAAwBNAAACPAKMABEAGgAiAAAzETMyFhYVFAYHFRYWFRQGBiMDMzI2NTQmIyMRMzI1NCYjI03fRGxALSgyQ0RyR19FNjEyNEZTeTw9UwKMHUY/K1MPBA1LQUNUKQGHKiMmIP5YWCslAAABAC7/9AIwApgAGwAABSImJjU0NjYzMhYXByYmIyIGBhUUFjMyNjcXBgFdUopTVY1SP2QhThk3IyxJK1ZIKD8YTlIMTJVtbJlRMyJeFx0yXkJkcCQZXGAAAQAj//QCCgKYACoAAAUiJic3FhYzMjY1NCYnJy4CNTQ2NjMyFhcHJiYjIgYVFBYXFxYWFRQGBgEUQH8yVCNWKC4tMytVITwmO2lEOHAqSyBAJyYtOSpUO0Y6bgwwLmUeJiIdHx0SJA4vRi82WDQsKl0ZGx8cHh4RIhhURTZcOAABABkAAAITAowABwAAMxEjNSEVIxHMswH6swIQfHz98AAAAgBB//QCFgK9ABQAHwAABSImJyMHIxEzFQc2NjMyFhYVFAYGJzI2NTQjIgcVFhYBRSFDHQQMc5MEHUQiPFgvPF9YJjZWLCkUKAwhIDUCvaxMGh0+cUxVeT94RkyGLcsSDgACACf/9AH8Ar0AEwAgAAAXIiY1NDY2MzIWFyc1MxEjJyMGBjcyNjc1JiYjIgYVFBbyXG87XzQpOBkGk3gKBBpGAhgnEhMrFCM2LwyLeVF1PhwYTKn9QzEaI3gUGcsSDkNHSUUAAgAk//QB4QH8ABgAHwAABSImJjU0NjYzMhYWFRQGByEWFjMyNxcGBgMzNCYjIgYBH0dyQkNsO0ddLwQC/tcKRjE1NjEmXpqzJywiNgw+dFJRdD8/a0QTJQk2MyFZGh4BOik1LwD//wA3AAAA3QLTAiYAFAAAAAcAHACKAAAAAQBBAAACHgK9AAwAADMRMxEzNzMHEyMnBxVBjwSdoK67n3A/Ar3+bsXM/tzBR3oAAQBB//QBEgK9AA8AABciJjURMxEUFjMyNjcXBgbITDuTEQkFBwYSDCUMW0sCI/3XFxIBAW0FBwABAEEAAAMdAfwAIQAAMxEzFzM2NjMyFhc2NjMyFhURIxE0JiMiBxEjETQmIyIHEUF4CgQfRjE1QRMhSjFQS5MdICUwkx0gJS8B8EAfLSsoIjFrXf7MASE2KDD+sQEhNigw/rEAAQBBAAACAAH8ABQAADMRMxczNjYzMhYVESMRNCYjIgYHEUF4CgQgTTJRSZMdIBwoGAHwPx4ta13+zAEhNigZF/6xAAACACT/9AIHAfwADwAbAAAFIiYmNTQ2NjMyFhYVFAYGJzI2NTQmIyIGFRQWARY/b0REbz8/bkREbj8tLi4tLi0tDD11UlN0PT10U1J1PXdNQEFMTEFATQAAAQBBAAABjwH8ABIAADMRMxczNjYzMhYXByYmIyIGBxFBeAoEG0wmFRwKGA0ZEBw9FAHwVzIxBQV/BAQpMv7gAAEAFf/0AZ8B/AAnAAAXIiYnNxYWMzI2NTQmJicuAjU0NjMyFhcHJiYjIhUUFhceAhUUBtMxZyZCIj8fIR4dLhoeOyhpVTlXH0IaNBo5OSYgPSloDCYfXBkbFxMRFhMKDCQ5KUVWJxhYFBYnGBkOCyM5LkNdAAABABH/9AFuAnQAFwAABSImNTUjNTc3MxUzFSMVFBYzMjY3FwYGAQBcT0RMEXp3dyMdDBkKFxM3DGpWyW0GhIRzxyolBgRrBgwAAAEAPP/0AfgB8AAUAAAXIiY1ETMRFBYzMjY3ETMRIycjBgbWUUmTHiAcJhaTeAsDH0oMa10BNP7fNSkaHQFI/hBFJSwAAQAM/z4B/QHwABsAABciJic3FhYzMjY3NwMzFxYWFzM2Njc3MwMOAngWIQ8aBxIIJSgKB7+URwsSCgQIEQk8jawXOE/CBgRwAQUkHRoB49UiRiUjRyPV/gs+VSoAAAEAQQAAANQB8AADAAAzETMRQZMB8P4QAAEASP9NASgC3wANAAAXJiY1NDY3FwYGFRQWF8w/RUU/XDcyMjezZ96EhN5nJmHXa2rXYgABADD/TQEQAt8ADQAAFyc2NjU0Jic3FhYVFAaMXDgyMjhcP0VFsyZi12pr12EmZ96EhN7//wA3AAAA3QLTAgYACQAAAAEAP/+mAOkB4QANAAAXJiY1NDY3FwYGFRQWF5orMDArTyIiIiJaQoJaWYJCID19Q0N9PgABACP/pgDNAeEADQAAFyc2NjU0Jic3FhYVFAZzUCIiIiJQKy8vWiA+fUNDfT0gQoJZWoL//wA/AKwA6QLnAgcAGAAAAQb//wAjAKwAzQLnAgcAGQAAAQYAAf+tAjkAUwLTAAsAABEiJjU0NjMyFhUUBiUuLiUlLi4COSojIyoqIyMqAA==) format('truetype');}]]></style></svg>\";\n\t\treturn string(abi.encodePacked(a, uid_str, b));\n\t}\n}\n",
  "sourcePath": "/home/snsd0805/code/1112_blockchain/Final/contracts/OnChainSVG.sol",
  "compiler": {
    "name": "solc",
    "version": "0.8.19+commit.7dd6d404.Emscripten.clang"
  },
  "schemaVersion": "3.4.13",
  "updatedAt": "2023-06-04T09:28:33.990Z",
  "devdoc": {
    "kind": "dev",
    "methods": {},
    "version": 1
  },
  "userdoc": {
    "kind": "user",
    "methods": {},
    "version": 1
  }
}