{
  "contractName": "SoulboundToken",
  "abi": [
    {
      "inputs": [],
      "stateMutability": "nonpayable",
      "type": "constructor"
    },
    {
      "anonymous": false,
      "inputs": [
        {
          "indexed": true,
          "internalType": "address",
          "name": "owner",
          "type": "address"
        },
        {
          "indexed": true,
          "internalType": "address",
          "name": "approved",
          "type": "address"
        },
        {
          "indexed": true,
          "internalType": "uint256",
          "name": "tokenId",
          "type": "uint256"
        }
      ],
      "name": "Approval",
      "type": "event"
    },
    {
      "anonymous": false,
      "inputs": [
        {
          "indexed": true,
          "internalType": "address",
          "name": "owner",
          "type": "address"
        },
        {
          "indexed": true,
          "internalType": "address",
          "name": "operator",
          "type": "address"
        },
        {
          "indexed": false,
          "internalType": "bool",
          "name": "approved",
          "type": "bool"
        }
      ],
      "name": "ApprovalForAll",
      "type": "event"
    },
    {
      "anonymous": false,
      "inputs": [
        {
          "indexed": true,
          "internalType": "address",
          "name": "from",
          "type": "address"
        },
        {
          "indexed": true,
          "internalType": "address",
          "name": "to",
          "type": "address"
        },
        {
          "indexed": true,
          "internalType": "uint256",
          "name": "tokenId",
          "type": "uint256"
        }
      ],
      "name": "Transfer",
      "type": "event"
    },
    {
      "inputs": [
        {
          "internalType": "address",
          "name": "to",
          "type": "address"
        },
        {
          "internalType": "uint256",
          "name": "tokenId",
          "type": "uint256"
        }
      ],
      "name": "approve",
      "outputs": [],
      "stateMutability": "nonpayable",
      "type": "function"
    },
    {
      "inputs": [
        {
          "internalType": "address",
          "name": "owner",
          "type": "address"
        }
      ],
      "name": "balanceOf",
      "outputs": [
        {
          "internalType": "uint256",
          "name": "",
          "type": "uint256"
        }
      ],
      "stateMutability": "view",
      "type": "function",
      "constant": true
    },
    {
      "inputs": [
        {
          "internalType": "uint256",
          "name": "tokenId",
          "type": "uint256"
        }
      ],
      "name": "getApproved",
      "outputs": [
        {
          "internalType": "address",
          "name": "",
          "type": "address"
        }
      ],
      "stateMutability": "view",
      "type": "function",
      "constant": true
    },
    {
      "inputs": [
        {
          "internalType": "address",
          "name": "owner",
          "type": "address"
        },
        {
          "internalType": "address",
          "name": "operator",
          "type": "address"
        }
      ],
      "name": "isApprovedForAll",
      "outputs": [
        {
          "internalType": "bool",
          "name": "",
          "type": "bool"
        }
      ],
      "stateMutability": "view",
      "type": "function",
      "constant": true
    },
    {
      "inputs": [],
      "name": "name",
      "outputs": [
        {
          "internalType": "string",
          "name": "",
          "type": "string"
        }
      ],
      "stateMutability": "view",
      "type": "function",
      "constant": true
    },
    {
      "inputs": [
        {
          "internalType": "uint256",
          "name": "tokenId",
          "type": "uint256"
        }
      ],
      "name": "ownerOf",
      "outputs": [
        {
          "internalType": "address",
          "name": "",
          "type": "address"
        }
      ],
      "stateMutability": "view",
      "type": "function",
      "constant": true
    },
    {
      "inputs": [
        {
          "internalType": "address",
          "name": "from",
          "type": "address"
        },
        {
          "internalType": "address",
          "name": "to",
          "type": "address"
        },
        {
          "internalType": "uint256",
          "name": "tokenId",
          "type": "uint256"
        }
      ],
      "name": "safeTransferFrom",
      "outputs": [],
      "stateMutability": "nonpayable",
      "type": "function"
    },
    {
      "inputs": [
        {
          "internalType": "address",
          "name": "from",
          "type": "address"
        },
        {
          "internalType": "address",
          "name": "to",
          "type": "address"
        },
        {
          "internalType": "uint256",
          "name": "tokenId",
          "type": "uint256"
        },
        {
          "internalType": "bytes",
          "name": "data",
          "type": "bytes"
        }
      ],
      "name": "safeTransferFrom",
      "outputs": [],
      "stateMutability": "nonpayable",
      "type": "function"
    },
    {
      "inputs": [
        {
          "internalType": "address",
          "name": "operator",
          "type": "address"
        },
        {
          "internalType": "bool",
          "name": "approved",
          "type": "bool"
        }
      ],
      "name": "setApprovalForAll",
      "outputs": [],
      "stateMutability": "nonpayable",
      "type": "function"
    },
    {
      "inputs": [
        {
          "internalType": "bytes4",
          "name": "interfaceId",
          "type": "bytes4"
        }
      ],
      "name": "supportsInterface",
      "outputs": [
        {
          "internalType": "bool",
          "name": "",
          "type": "bool"
        }
      ],
      "stateMutability": "view",
      "type": "function",
      "constant": true
    },
    {
      "inputs": [],
      "name": "symbol",
      "outputs": [
        {
          "internalType": "string",
          "name": "",
          "type": "string"
        }
      ],
      "stateMutability": "view",
      "type": "function",
      "constant": true
    },
    {
      "inputs": [
        {
          "internalType": "address",
          "name": "from",
          "type": "address"
        },
        {
          "internalType": "address",
          "name": "to",
          "type": "address"
        },
        {
          "internalType": "uint256",
          "name": "tokenId",
          "type": "uint256"
        }
      ],
      "name": "transferFrom",
      "outputs": [],
      "stateMutability": "nonpayable",
      "type": "function"
    },
    {
      "inputs": [
        {
          "internalType": "address",
          "name": "player",
          "type": "address"
        }
      ],
      "name": "mint",
      "outputs": [
        {
          "internalType": "uint256",
          "name": "",
          "type": "uint256"
        }
      ],
      "stateMutability": "nonpayable",
      "type": "function"
    },
    {
      "inputs": [
        {
          "internalType": "uint256",
          "name": "tokenId",
          "type": "uint256"
        }
      ],
      "name": "tokenURI",
      "outputs": [
        {
          "internalType": "string",
          "name": "",
          "type": "string"
        }
      ],
      "stateMutability": "view",
      "type": "function",
      "constant": true
    }
  ],
  "bytecode": "0x60806040523480156200001157600080fd5b506040518060400160405280601181526020017f4372656469742053797374656d205342540000000000000000000000000000008152506040518060400160405280600681526020017f43535f534254000000000000000000000000000000000000000000000000000081525081600090816200008f919062000324565b508060019081620000a1919062000324565b5050506200040b565b600081519050919050565b7f4e487b7100000000000000000000000000000000000000000000000000000000600052604160045260246000fd5b7f4e487b7100000000000000000000000000000000000000000000000000000000600052602260045260246000fd5b600060028204905060018216806200012c57607f821691505b602082108103620001425762000141620000e4565b5b50919050565b60008190508160005260206000209050919050565b60006020601f8301049050919050565b600082821b905092915050565b600060088302620001ac7fffffffffffffffffffffffffffffffffffffffffffffffffffffffffffffffff826200016d565b620001b886836200016d565b95508019841693508086168417925050509392505050565b6000819050919050565b6000819050919050565b600062000205620001ff620001f984620001d0565b620001da565b620001d0565b9050919050565b6000819050919050565b6200022183620001e4565b6200023962000230826200020c565b8484546200017a565b825550505050565b600090565b6200025062000241565b6200025d81848462000216565b505050565b5b8181101562000285576200027960008262000246565b60018101905062000263565b5050565b601f821115620002d4576200029e8162000148565b620002a9846200015d565b81016020851015620002b9578190505b620002d1620002c8856200015d565b83018262000262565b50505b505050565b600082821c905092915050565b6000620002f960001984600802620002d9565b1980831691505092915050565b6000620003148383620002e6565b9150826002028217905092915050565b6200032f82620000aa565b67ffffffffffffffff8111156200034b576200034a620000b5565b5b62000357825462000113565b6200036482828562000289565b600060209050601f8311600181146200039c576000841562000387578287015190505b62000393858262000306565b86555062000403565b601f198416620003ac8662000148565b60005b82811015620003d657848901518255600182019150602085019450602081019050620003af565b86831015620003f65784890151620003f2601f891682620002e6565b8355505b6001600288020188555050505b505050505050565b614de9806200041b6000396000f3fe608060405234801561001057600080fd5b50600436106100ea5760003560e01c80636a6278421161008c578063a22cb46511610066578063a22cb4651461026f578063b88d4fde1461028b578063c87b56dd146102a7578063e985e9c5146102d7576100ea565b80636a627842146101f157806370a082311461022157806395d89b4114610251576100ea565b8063095ea7b3116100c8578063095ea7b31461016d57806323b872dd1461018957806342842e0e146101a55780636352211e146101c1576100ea565b806301ffc9a7146100ef57806306fdde031461011f578063081812fc1461013d575b600080fd5b61010960048036038101906101049190611a82565b610307565b6040516101169190611aca565b60405180910390f35b6101276103e9565b6040516101349190611b75565b60405180910390f35b61015760048036038101906101529190611bcd565b61047b565b6040516101649190611c3b565b60405180910390f35b61018760048036038101906101829190611c82565b6104c1565b005b6101a3600480360381019061019e9190611cc2565b6105d8565b005b6101bf60048036038101906101ba9190611cc2565b610638565b005b6101db60048036038101906101d69190611bcd565b610658565b6040516101e89190611c3b565b60405180910390f35b61020b60048036038101906102069190611d15565b6106de565b6040516102189190611d51565b60405180910390f35b61023b60048036038101906102369190611d15565b61070b565b6040516102489190611d51565b60405180910390f35b6102596107c2565b6040516102669190611b75565b60405180910390f35b61028960048036038101906102849190611d98565b610854565b005b6102a560048036038101906102a09190611f0d565b61086a565b005b6102c160048036038101906102bc9190611bcd565b6108cc565b6040516102ce9190611b75565b60405180910390f35b6102f160048036038101906102ec9190611f90565b61093d565b6040516102fe9190611aca565b60405180910390f35b60007f80ac58cd000000000000000000000000000000000000000000000000000000007bffffffffffffffffffffffffffffffffffffffffffffffffffffffff1916827bffffffffffffffffffffffffffffffffffffffffffffffffffffffff191614806103d257507f5b5e139f000000000000000000000000000000000000000000000000000000007bffffffffffffffffffffffffffffffffffffffffffffffffffffffff1916827bffffffffffffffffffffffffffffffffffffffffffffffffffffffff1916145b806103e257506103e1826109d1565b5b9050919050565b6060600080546103f890611fff565b80601f016020809104026020016040519081016040528092919081815260200182805461042490611fff565b80156104715780601f1061044657610100808354040283529160200191610471565b820191906000526020600020905b81548152906001019060200180831161045457829003601f168201915b5050505050905090565b600061048682610a3b565b6004600083815260200190815260200160002060009054906101000a900473ffffffffffffffffffffffffffffffffffffffff169050919050565b60006104cc82610658565b90508073ffffffffffffffffffffffffffffffffffffffff168373ffffffffffffffffffffffffffffffffffffffff160361053c576040517f08c379a0000000000000000000000000000000000000000000000000000000008152600401610533906120a2565b60405180910390fd5b8073ffffffffffffffffffffffffffffffffffffffff1661055b610a86565b73ffffffffffffffffffffffffffffffffffffffff16148061058a575061058981610584610a86565b61093d565b5b6105c9576040517f08c379a00000000000000000000000000000000000000000000000000000000081526004016105c090612134565b60405180910390fd5b6105d38383610a8e565b505050565b6105e96105e3610a86565b82610b47565b610628576040517f08c379a000000000000000000000000000000000000000000000000000000000815260040161061f906121c6565b60405180910390fd5b610633838383610bdc565b505050565b6106538383836040518060200160405280600081525061086a565b505050565b60008061066483610ed5565b9050600073ffffffffffffffffffffffffffffffffffffffff168173ffffffffffffffffffffffffffffffffffffffff16036106d5576040517f08c379a00000000000000000000000000000000000000000000000000000000081526004016106cc90612232565b60405180910390fd5b80915050919050565b60006106ea6006610f12565b60006106f66006610f28565b90506107028382610f36565b80915050919050565b60008073ffffffffffffffffffffffffffffffffffffffff168273ffffffffffffffffffffffffffffffffffffffff160361077b576040517f08c379a0000000000000000000000000000000000000000000000000000000008152600401610772906122c4565b60405180910390fd5b600360008373ffffffffffffffffffffffffffffffffffffffff1673ffffffffffffffffffffffffffffffffffffffff168152602001908152602001600020549050919050565b6060600180546107d190611fff565b80601f01602080910402602001604051908101604052809291908181526020018280546107fd90611fff565b801561084a5780601f1061081f5761010080835404028352916020019161084a565b820191906000526020600020905b81548152906001019060200180831161082d57829003601f168201915b5050505050905090565b61086661085f610a86565b8383611153565b5050565b61087b610875610a86565b83610b47565b6108ba576040517f08c379a00000000000000000000000000000000000000000000000000000000081526004016108b1906121c6565b60405180910390fd5b6108c6848484846112bf565b50505050565b60606108d782610a3b565b60006109136108e58461131b565b6108ee856113e9565b6040516020016108ff9291906124c2565b604051602081830303815290604052611466565b9050806040516020016109269190612569565b604051602081830303815290604052915050919050565b6000600560008473ffffffffffffffffffffffffffffffffffffffff1673ffffffffffffffffffffffffffffffffffffffff16815260200190815260200160002060008373ffffffffffffffffffffffffffffffffffffffff1673ffffffffffffffffffffffffffffffffffffffff16815260200190815260200160002060009054906101000a900460ff16905092915050565b60007f01ffc9a7000000000000000000000000000000000000000000000000000000007bffffffffffffffffffffffffffffffffffffffffffffffffffffffff1916827bffffffffffffffffffffffffffffffffffffffffffffffffffffffff1916149050919050565b610a44816115c9565b610a83576040517f08c379a0000000000000000000000000000000000000000000000000000000008152600401610a7a90612232565b60405180910390fd5b50565b600033905090565b816004600083815260200190815260200160002060006101000a81548173ffffffffffffffffffffffffffffffffffffffff021916908373ffffffffffffffffffffffffffffffffffffffff160217905550808273ffffffffffffffffffffffffffffffffffffffff16610b0183610658565b73ffffffffffffffffffffffffffffffffffffffff167f8c5be1e5ebec7d5bd14f71427d1e84f3dd0314c0f7b2291e5b200ac8c7c3b92560405160405180910390a45050565b600080610b5383610658565b90508073ffffffffffffffffffffffffffffffffffffffff168473ffffffffffffffffffffffffffffffffffffffff161480610b955750610b94818561093d565b5b80610bd357508373ffffffffffffffffffffffffffffffffffffffff16610bbb8461047b565b73ffffffffffffffffffffffffffffffffffffffff16145b91505092915050565b8273ffffffffffffffffffffffffffffffffffffffff16610bfc82610658565b73ffffffffffffffffffffffffffffffffffffffff1614610c52576040517f08c379a0000000000000000000000000000000000000000000000000000000008152600401610c49906125fd565b60405180910390fd5b600073ffffffffffffffffffffffffffffffffffffffff168273ffffffffffffffffffffffffffffffffffffffff1603610cc1576040517f08c379a0000000000000000000000000000000000000000000000000000000008152600401610cb89061268f565b60405180910390fd5b610cce838383600161160a565b8273ffffffffffffffffffffffffffffffffffffffff16610cee82610658565b73ffffffffffffffffffffffffffffffffffffffff1614610d44576040517f08c379a0000000000000000000000000000000000000000000000000000000008152600401610d3b906125fd565b60405180910390fd5b6004600082815260200190815260200160002060006101000a81549073ffffffffffffffffffffffffffffffffffffffff02191690556001600360008573ffffffffffffffffffffffffffffffffffffffff1673ffffffffffffffffffffffffffffffffffffffff168152602001908152602001600020600082825403925050819055506001600360008473ffffffffffffffffffffffffffffffffffffffff1673ffffffffffffffffffffffffffffffffffffffff16815260200190815260200160002060008282540192505081905550816002600083815260200190815260200160002060006101000a81548173ffffffffffffffffffffffffffffffffffffffff021916908373ffffffffffffffffffffffffffffffffffffffff160217905550808273ffffffffffffffffffffffffffffffffffffffff168473ffffffffffffffffffffffffffffffffffffffff167fddf252ad1be2c89b69c2b068fc378daa952ba7f163c4a11628f55a4df523b3ef60405160405180910390a4610ed0838383600161170d565b505050565b60006002600083815260200190815260200160002060009054906101000a900473ffffffffffffffffffffffffffffffffffffffff169050919050565b6001816000016000828254019250508190555050565b600081600001549050919050565b600073ffffffffffffffffffffffffffffffffffffffff168273ffffffffffffffffffffffffffffffffffffffff1603610fa5576040517f08c379a0000000000000000000000000000000000000000000000000000000008152600401610f9c906126fb565b60405180910390fd5b610fae816115c9565b15610fee576040517f08c379a0000000000000000000000000000000000000000000000000000000008152600401610fe590612767565b60405180910390fd5b610ffc60008383600161160a565b611005816115c9565b15611045576040517f08c379a000000000000000000000000000000000000000000000000000000000815260040161103c90612767565b60405180910390fd5b6001600360008473ffffffffffffffffffffffffffffffffffffffff1673ffffffffffffffffffffffffffffffffffffffff16815260200190815260200160002060008282540192505081905550816002600083815260200190815260200160002060006101000a81548173ffffffffffffffffffffffffffffffffffffffff021916908373ffffffffffffffffffffffffffffffffffffffff160217905550808273ffffffffffffffffffffffffffffffffffffffff16600073ffffffffffffffffffffffffffffffffffffffff167fddf252ad1be2c89b69c2b068fc378daa952ba7f163c4a11628f55a4df523b3ef60405160405180910390a461114f60008383600161170d565b5050565b8173ffffffffffffffffffffffffffffffffffffffff168373ffffffffffffffffffffffffffffffffffffffff16036111c1576040517f08c379a00000000000000000000000000000000000000000000000000000000081526004016111b8906127d3565b60405180910390fd5b80600560008573ffffffffffffffffffffffffffffffffffffffff1673ffffffffffffffffffffffffffffffffffffffff16815260200190815260200160002060008473ffffffffffffffffffffffffffffffffffffffff1673ffffffffffffffffffffffffffffffffffffffff16815260200190815260200160002060006101000a81548160ff0219169083151502179055508173ffffffffffffffffffffffffffffffffffffffff168373ffffffffffffffffffffffffffffffffffffffff167f17307eab39ab6107e8899845ad3d59bd9653f200f220920489ca2b5937696c31836040516112b29190611aca565b60405180910390a3505050565b6112ca848484610bdc565b6112d684848484611713565b611315576040517f08c379a000000000000000000000000000000000000000000000000000000000815260040161130c90612865565b60405180910390fd5b50505050565b60606000600161132a8461189a565b01905060008167ffffffffffffffff81111561134957611348611de2565b5b6040519080825280601f01601f19166020018201604052801561137b5781602001600182028036833780820191505090505b509050600082602001820190505b6001156113de578080600190039150507f3031323334353637383961626364656600000000000000000000000000000000600a86061a8153600a85816113d2576113d1612885565b5b04945060008503611389575b819350505050919050565b606060006113f68361131b565b9050600060405180610960016040528061093c815260200161447861093c913990506000604051806118c0016040528061189b8152602001612b9d61189b9139905081838260405160200161144d939291906128b4565b6040516020818303038152906040529350505050919050565b60606000825103611488576040518060200160405280600081525090506115c4565b600060405180606001604052806040815260200161443860409139905060006003600285516114b79190612914565b6114c19190612948565b60046114cd9190612979565b67ffffffffffffffff8111156114e6576114e5611de2565b5b6040519080825280601f01601f1916602001820160405280156115185781602001600182028036833780820191505090505b509050600182016020820185865187015b80821015611584576003820191508151603f8160121c168501518453600184019350603f81600c1c168501518453600184019350603f8160061c168501518453600184019350603f8116850151845360018401935050611529565b50506003865106600181146115a057600281146115b3576115bb565b603d6001830353603d60028303536115bb565b603d60018303535b50505080925050505b919050565b60008073ffffffffffffffffffffffffffffffffffffffff166115eb83610ed5565b73ffffffffffffffffffffffffffffffffffffffff1614159050919050565b600073ffffffffffffffffffffffffffffffffffffffff168473ffffffffffffffffffffffffffffffffffffffff1614806116715750600073ffffffffffffffffffffffffffffffffffffffff168373ffffffffffffffffffffffffffffffffffffffff16145b6116b0576040517f08c379a00000000000000000000000000000000000000000000000000000000081526004016116a790612a07565b60405180910390fd5b60006116bb8461070b565b146116fb576040517f08c379a00000000000000000000000000000000000000000000000000000000081526004016116f290612a99565b60405180910390fd5b611707848484846119ed565b50505050565b50505050565b60006117348473ffffffffffffffffffffffffffffffffffffffff166119f3565b1561188d578373ffffffffffffffffffffffffffffffffffffffff1663150b7a0261175d610a86565b8786866040518563ffffffff1660e01b815260040161177f9493929190612b0e565b6020604051808303816000875af19250505080156117bb57506040513d601f19601f820116820180604052508101906117b89190612b6f565b60015b61183d573d80600081146117eb576040519150601f19603f3d011682016040523d82523d6000602084013e6117f0565b606091505b506000815103611835576040517f08c379a000000000000000000000000000000000000000000000000000000000815260040161182c90612865565b60405180910390fd5b805181602001fd5b63150b7a0260e01b7bffffffffffffffffffffffffffffffffffffffffffffffffffffffff1916817bffffffffffffffffffffffffffffffffffffffffffffffffffffffff191614915050611892565b600190505b949350505050565b600080600090507a184f03e93ff9f4daa797ed6e38ed64bf6a1f01000000000000000083106118f8577a184f03e93ff9f4daa797ed6e38ed64bf6a1f01000000000000000083816118ee576118ed612885565b5b0492506040810190505b6d04ee2d6d415b85acef81000000008310611935576d04ee2d6d415b85acef8100000000838161192b5761192a612885565b5b0492506020810190505b662386f26fc10000831061196457662386f26fc10000838161195a57611959612885565b5b0492506010810190505b6305f5e100831061198d576305f5e100838161198357611982612885565b5b0492506008810190505b61271083106119b25761271083816119a8576119a7612885565b5b0492506004810190505b606483106119d557606483816119cb576119ca612885565b5b0492506002810190505b600a83106119e4576001810190505b80915050919050565b50505050565b6000808273ffffffffffffffffffffffffffffffffffffffff163b119050919050565b6000604051905090565b600080fd5b600080fd5b60007fffffffff0000000000000000000000000000000000000000000000000000000082169050919050565b611a5f81611a2a565b8114611a6a57600080fd5b50565b600081359050611a7c81611a56565b92915050565b600060208284031215611a9857611a97611a20565b5b6000611aa684828501611a6d565b91505092915050565b60008115159050919050565b611ac481611aaf565b82525050565b6000602082019050611adf6000830184611abb565b92915050565b600081519050919050565b600082825260208201905092915050565b60005b83811015611b1f578082015181840152602081019050611b04565b60008484015250505050565b6000601f19601f8301169050919050565b6000611b4782611ae5565b611b518185611af0565b9350611b61818560208601611b01565b611b6a81611b2b565b840191505092915050565b60006020820190508181036000830152611b8f8184611b3c565b905092915050565b6000819050919050565b611baa81611b97565b8114611bb557600080fd5b50565b600081359050611bc781611ba1565b92915050565b600060208284031215611be357611be2611a20565b5b6000611bf184828501611bb8565b91505092915050565b600073ffffffffffffffffffffffffffffffffffffffff82169050919050565b6000611c2582611bfa565b9050919050565b611c3581611c1a565b82525050565b6000602082019050611c506000830184611c2c565b92915050565b611c5f81611c1a565b8114611c6a57600080fd5b50565b600081359050611c7c81611c56565b92915050565b60008060408385031215611c9957611c98611a20565b5b6000611ca785828601611c6d565b9250506020611cb885828601611bb8565b9150509250929050565b600080600060608486031215611cdb57611cda611a20565b5b6000611ce986828701611c6d565b9350506020611cfa86828701611c6d565b9250506040611d0b86828701611bb8565b9150509250925092565b600060208284031215611d2b57611d2a611a20565b5b6000611d3984828501611c6d565b91505092915050565b611d4b81611b97565b82525050565b6000602082019050611d666000830184611d42565b92915050565b611d7581611aaf565b8114611d8057600080fd5b50565b600081359050611d9281611d6c565b92915050565b60008060408385031215611daf57611dae611a20565b5b6000611dbd85828601611c6d565b9250506020611dce85828601611d83565b9150509250929050565b600080fd5b600080fd5b7f4e487b7100000000000000000000000000000000000000000000000000000000600052604160045260246000fd5b611e1a82611b2b565b810181811067ffffffffffffffff82111715611e3957611e38611de2565b5b80604052505050565b6000611e4c611a16565b9050611e588282611e11565b919050565b600067ffffffffffffffff821115611e7857611e77611de2565b5b611e8182611b2b565b9050602081019050919050565b82818337600083830152505050565b6000611eb0611eab84611e5d565b611e42565b905082815260208101848484011115611ecc57611ecb611ddd565b5b611ed7848285611e8e565b509392505050565b600082601f830112611ef457611ef3611dd8565b5b8135611f04848260208601611e9d565b91505092915050565b60008060008060808587031215611f2757611f26611a20565b5b6000611f3587828801611c6d565b9450506020611f4687828801611c6d565b9350506040611f5787828801611bb8565b925050606085013567ffffffffffffffff811115611f7857611f77611a25565b5b611f8487828801611edf565b91505092959194509250565b60008060408385031215611fa757611fa6611a20565b5b6000611fb585828601611c6d565b9250506020611fc685828601611c6d565b9150509250929050565b7f4e487b7100000000000000000000000000000000000000000000000000000000600052602260045260246000fd5b6000600282049050600182168061201757607f821691505b60208210810361202a57612029611fd0565b5b50919050565b7f4552433732313a20617070726f76616c20746f2063757272656e74206f776e6560008201527f7200000000000000000000000000000000000000000000000000000000000000602082015250565b600061208c602183611af0565b915061209782612030565b604082019050919050565b600060208201905081810360008301526120bb8161207f565b9050919050565b7f4552433732313a20617070726f76652063616c6c6572206973206e6f7420746f60008201527f6b656e206f776e6572206f7220617070726f76656420666f7220616c6c000000602082015250565b600061211e603d83611af0565b9150612129826120c2565b604082019050919050565b6000602082019050818103600083015261214d81612111565b9050919050565b7f4552433732313a2063616c6c6572206973206e6f7420746f6b656e206f776e6560008201527f72206f7220617070726f76656400000000000000000000000000000000000000602082015250565b60006121b0602d83611af0565b91506121bb82612154565b604082019050919050565b600060208201905081810360008301526121df816121a3565b9050919050565b7f4552433732313a20696e76616c696420746f6b656e2049440000000000000000600082015250565b600061221c601883611af0565b9150612227826121e6565b602082019050919050565b6000602082019050818103600083015261224b8161220f565b9050919050565b7f4552433732313a2061646472657373207a65726f206973206e6f74206120766160008201527f6c6964206f776e65720000000000000000000000000000000000000000000000602082015250565b60006122ae602983611af0565b91506122b982612252565b604082019050919050565b600060208201905081810360008301526122dd816122a1565b9050919050565b600081905092915050565b7f7b226e616d65223a20224372656469742053797374656d20536f756c626f756e60008201527f6420546f6b656e20284353534254292023000000000000000000000000000000602082015250565b600061234b6031836122e4565b9150612356826122ef565b603182019050919050565b600061236c82611ae5565b61237681856122e4565b9350612386818560208601611b01565b80840191505092915050565b7f222c000000000000000000000000000000000000000000000000000000000000600082015250565b60006123c86002836122e4565b91506123d382612392565b600282019050919050565b7f22696d6167655f64617461223a20220000000000000000000000000000000000600082015250565b6000612414600f836122e4565b915061241f826123de565b600f82019050919050565b7f2200000000000000000000000000000000000000000000000000000000000000600082015250565b60006124606001836122e4565b915061246b8261242a565b600182019050919050565b7f7d00000000000000000000000000000000000000000000000000000000000000600082015250565b60006124ac6001836122e4565b91506124b782612476565b600182019050919050565b60006124cd8261233e565b91506124d98285612361565b91506124e4826123bb565b91506124ef82612407565b91506124fb8284612361565b915061250682612453565b91506125118261249f565b91508190509392505050565b7f646174613a6170706c69636174696f6e2f6a736f6e3b6261736536342c000000600082015250565b6000612553601d836122e4565b915061255e8261251d565b601d82019050919050565b600061257482612546565b91506125808284612361565b915081905092915050565b7f4552433732313a207472616e736665722066726f6d20696e636f72726563742060008201527f6f776e6572000000000000000000000000000000000000000000000000000000602082015250565b60006125e7602583611af0565b91506125f28261258b565b604082019050919050565b60006020820190508181036000830152612616816125da565b9050919050565b7f4552433732313a207472616e7366657220746f20746865207a65726f2061646460008201527f7265737300000000000000000000000000000000000000000000000000000000602082015250565b6000612679602483611af0565b91506126848261261d565b604082019050919050565b600060208201905081810360008301526126a88161266c565b9050919050565b7f4552433732313a206d696e7420746f20746865207a65726f2061646472657373600082015250565b60006126e5602083611af0565b91506126f0826126af565b602082019050919050565b60006020820190508181036000830152612714816126d8565b9050919050565b7f4552433732313a20746f6b656e20616c7265616479206d696e74656400000000600082015250565b6000612751601c83611af0565b915061275c8261271b565b602082019050919050565b6000602082019050818103600083015261278081612744565b9050919050565b7f4552433732313a20617070726f766520746f2063616c6c657200000000000000600082015250565b60006127bd601983611af0565b91506127c882612787565b602082019050919050565b600060208201905081810360008301526127ec816127b0565b9050919050565b7f4552433732313a207472616e7366657220746f206e6f6e20455243373231526560008201527f63656976657220696d706c656d656e7465720000000000000000000000000000602082015250565b600061284f603283611af0565b915061285a826127f3565b604082019050919050565b6000602082019050818103600083015261287e81612842565b9050919050565b7f4e487b7100000000000000000000000000000000000000000000000000000000600052601260045260246000fd5b60006128c08286612361565b91506128cc8285612361565b91506128d88284612361565b9150819050949350505050565b7f4e487b7100000000000000000000000000000000000000000000000000000000600052601160045260246000fd5b600061291f82611b97565b915061292a83611b97565b9250828201905080821115612942576129416128e5565b5b92915050565b600061295382611b97565b915061295e83611b97565b92508261296e5761296d612885565b5b828204905092915050565b600061298482611b97565b915061298f83611b97565b925082820261299d81611b97565b915082820484148315176129b4576129b36128e5565b5b5092915050565b7f534f554c424f554e443a204e6f6e2d5472616e7366657261626c652e00000000600082015250565b60006129f1601c83611af0565b91506129fc826129bb565b602082019050919050565b60006020820190508181036000830152612a20816129e4565b9050919050565b7f534f554c424f554e443a2045766572796f6e652073686f756c64206f6e6c792060008201527f686176652031205342542e000000000000000000000000000000000000000000602082015250565b6000612a83602b83611af0565b9150612a8e82612a27565b604082019050919050565b60006020820190508181036000830152612ab281612a76565b9050919050565b600081519050919050565b600082825260208201905092915050565b6000612ae082612ab9565b612aea8185612ac4565b9350612afa818560208601611b01565b612b0381611b2b565b840191505092915050565b6000608082019050612b236000830187611c2c565b612b306020830186611c2c565b612b3d6040830185611d42565b8181036060830152612b4f8184612ad5565b905095945050505050565b600081519050612b6981611a56565b92915050565b600060208284031215612b8557612b84611a20565b5b6000612b9384828501612b5a565b9150509291505056fe5d5d3e3c2f747370616e3e3c2f746578743e3c7374796c653e3c215b43444154415b40666f6e742d66616365207b666f6e742d66616d696c793a2027655932476a50376b355374313a3a3a536f757263652053616e732050726f273b666f6e742d7374796c653a206e6f726d616c3b666f6e742d7765696768743a203730303b7372633a2075726c28646174613a666f6e742f7474663b636861727365743d7574662d383b6261736536342c414145414141414e41494141417742515230524652674153414251414141446341414141466b645154314e53446b4733414141486141414141787848553156435a6e553268774141417951414141484954314d764d6c7842647134414141484d4141414159474e745958414345414d35414141436f4141414149526e62486c6d6e68456676514141436f514141416451614756685a42742f4874514141414659414141414e6d686f5a57454b66775863414141424e4141414143526f625852344d5230464167414141697741414142306247396a5952326748395941414147514141414150473168654841414e5144334141414139414141414342755957316c55755a7533674141424f774141414a386347397a64502f524144494141414555414141414941414241414141444141414141414141414143414145414167415441414541414141424141414148514351414177415977414841414541414141414141414141414141414141414241414441414d41414141414141442f7a674179414141414141414141414141414141414141414141414141414141414151414141396a2b37774141434a6a2b4e2f343343473041415141414141414141414141414141414141414141423041415141414141494c68645a7438343566447a7a314141454436414141414144595861434541414141414e316d4c7a622b4e2f3745434730443851414241414d41416741414141414141414141414377414c414267414977417a414464415134425141467a415838426c77477a416555434277497a416c4d436a674b7a4174554442414d5141796f4452414e4d4132594467414f4a413549447141414441696f43764141464141414369674a594141414153774b4b416c674141414665414449424b5141414167734841774d454177494342414141414363414141414441414141414141414141424252454a50414341414950372f4175372f426741414139674245534141415a384141414141416641436c4141414143414141774b794146414179414141416c304154514a47414334434c41416a4169774147514939414545435051416e416759414a414555414463434a4142424152344151514e5a4145454350414242416973414a41474f41454542757741564158384145514934414477434351414d41525141515146594145674257414177415251414e77454d414438424441416a415177415077454d41434d4141502b74414141414167414141414d414141415541414d41415141414142514142414277414141414741415141414d414341416741436b4151774255414749415a5142704147384164514235414b442f2f774141414341414b41424341464d415967426b41476b416177427941486b416f502f2f2f2b482f37662f412f37482f70502b6a2f36442f6e2f2b642f35722f595141424141414141414141414141414141414141414141414141414141414141414141414145414141414b414b41425441414552455a4d5641434759336c79624142325a334a6c6177426d62474630626741614145414141304661525341414d6b4e53564341414a46525353794141466741412f2f38414241414741413041454141584141442f2f77414541415541444141504142594141502f2f414151414241414c41413441465141412f2f38414177414441416f41464141454141414141502f2f41414d414167414a41424d41424141414141442f2f774144414145414341415341415141414141412f2f38414177414141416341455141595a4735766251436d5a4735766251436d5a4735766251436d5a4735766251436d5a4735766251436d5a4735766251436d5a4735766251436d5a6e4a68597743655a6e4a68597743655a6e4a68597743655a6e4a68597743655a6e4a68597743655a6e4a68597743655a6e4a68597743656247396a624143596247396a624143596247396a62414359626e567463674353626e567463674353626e567463674353626e567463674353626e567463674353626e567463674353626e56746367435341414141415141424141414141514141414141414167414241414d4141414142414149414251426f4146494152414161414177414151414141414541434141424143442f2f674147414141414151414941414d4141514161414145414567414141414541414141454141454141674161414273414151414341426741475141424141414141514149414145414641414441414541414141424141674141514147414155414151414341425541466741424141414141514149414145414267414f414145414151414a414141414341426d41414d414151514a414141417867465141414d414151514a414145414867457941414d414151514a414149414341457141414d414151514a41414d415267446b41414d414151514a414151414b41433841414d414151514a414155415a41425941414d414151514a414159414a41413041414d414151514a414134414e4141414147674164414230414841414f674176414338416377426a4148494161514277414851416377417541484d41615142734143344162774279414763414c7742504145594154414254414738416451427941474d415a514254414745416267427a41464141636742764143304151674276414777415a414257414755416367427a41476b4162774275414341414d674175414441414e414131414473416141427641485141597742764147344164674167414445414c674177414334414d51417741446b414f774274414745416177426c414738416441426d414755416541426c414341414d674175414455414c674132414455414e5141354144594155774276414855416367426a4147554149414254414745416267427a41434141554142794147384149414243414738416241426b414449414c674177414451414e5141374145454152414243414538414f774254414738416451427941474d415a514254414745416267427a41464141636742764143304151674276414777415a41413741454541524142504145494152514243414738416241426b41464d4162774231414849415977426c414341415577426841473441637741674146414163674276414b6b4149414179414441414d514177414341414c514167414449414d41417841446741494142424147514162774269414755414941425441486b4163774230414755416251427a414341415351427541474d41627742794148414162774279414745416441426c414751414941416f4147674164414230414841414f6741764143384164774233414863414c6742684147514162774269414755414c67426a414738416251417641436b414c41416741486341615142304147674149414253414755416377426c414849416467426c414751414941424741473841626742304143414154674268414730415a5141674942674155774276414855416367426a4147556747514175414145414141414b414651416441414552455a4d5641412b59336c79624141795a334a6c6177416d624746306267416141415141414141412f2f38414151414441415141414141412f2f38414151414341415141414141412f2f38414151414241415141414141412f2f384141514141414152725a584a75414270725a584a75414270725a584a75414270725a584a7541426f4141414142414141414151414541416b414141414341624941436741424141494141414149414149424d414145414141426467464741417741444141412f2b542f33662f4c2f2b3441414141414141414141414141414141414141414141414141414141414141414141414141414141414141414141414141414141414141414141502f6b4141414141414141414141414141414141414141414141414141442f35762f4641414141414141412f2f674141502f3741414141414141412f2f59414141414141414141414141414141634141502f3441414141414141414141442f37502f6b4141414141414141414141414141414141414141414141414141442f35502f734141414141502f75414141414141414141414141414141412f2b372f37502f7541414141414141414141414141502f3241414141414141412f37542f394141412f39622f35502f6e2f2b674141502f452f395941414141414141414141502f734141414141414141414141414141414141414141414141412f2f674141502f73414141414141414141414141414141414141414141414141414141414141414141414141414141414141414141414141414141414141414341414d4142414147414141414367415441414d41465141564141304141514144414255414251414741414d41414141424141454143774141414141414367414b414145414367414a414149414241414841414141414141494141734141514145414249414267414941414d414141414141414141414141424141494141674144414151414251414841416b4143674141414173414151414341414141434141434149674142414141414d67416d41414641417741414141412f2f622f354141414141442f37762f75414141414141414141414141414141412f397a2f39502f624141442f37762f6b4141442f39674141414141414141414141414141414141414141414141414141414141414141414141414141414141412f2f622f354141414141442f2b762f734141414141414141414141414141414141414141414141414141414141414141414141414141414141414141415141474141494141774148414167414351415841414541417741564141514142774144414141414341414941416f41414141414141734143774149414173414251414341416b4142674141414141414151414b414149414251414441414d41415141484141634141674149414167414177414a41416b414241415841426341424141464146414141414a69417051414177414a41413841456741564141417a455345524a544d6e4a794d484e7a4d334e794d58417a636e41524548554149532f71576b4a796b454b536b454b694359483370665877464e58674b552f57786254574a69396c38374f2f36657562722b6a51467a756741414177424e4141414350414b4d41424541476741694141417a45544d794668595646415948465259574652514742694d444d7a49324e54516d49794d524d7a49314e43596a49303366524778414c53677951305279523139464e6a45794e455a546554773955774b4d4855592f4b314d504241314c51554e554b5147484b694d6d495035595743736c414141424143372f3941497741706741477741414253496d4a6a55304e6a597a4d6859584279596d4979494742685555466a4d794e6a635842674664556f7054565931535032516854686b334979784a4b315a494b443859546c494d544a5674624a6c524d794a6546783079586b4a6b6343515a584741414151416a2f2f514343674b5941436f41414155694a6963334668597a4d6a59314e43596e4a7934434e5451324e6a4d79466863484a69596a49675956464259584678595746525147426745555148387956434e574b4334744d7974564954776d4f326c454f484171537942414a7959744f5370554f305936626777774c6d55654a694964487830534a41347652693832574451734b6c305a47783863486834524968685552545a634f41414241426b4141414954416f7741427741414d78456a4e5345564978484d737748367377495166487a3938414141416742422f2f514346674b3941425141487741414253496d4a794d484978457a465163324e6a4d7946685956464159474a7a49324e54516a4967635646685942525346444851514d63354d454855516950466776504639594a6a5a574c436b554b417768494455437661784d4768302b6355785665543934526b79474c637353446741434143662f39414838417230414577416741414158496959314e4459324d7a4957467963314d78456a4a794d47426a63794e6a63314a69596a496759564642627958473837587a51704f426b476b33674b424270474168676e45684d7246434d324c77794c6556463150687759544b6e39517a45614933675547637353446b4e48535555414167416b2f2f51423451483841426741487741414253496d4a6a55304e6a597a4d6859574652514742794557466a4d794e78634742674d7a4e43596a4967594248306479516b4e734f3064644c7751432f74634b526a45314e6a456d5870717a4a7977694e67772b64464a526444382f613051544a516b324d79465a476834424f696b314c77442f2f7741334141414133514c544169594146414141414163414841434b41414141415142424141414348674b394141774141444d524d78457a4e7a4d4845794d6e427856426a7753646f4b36376e33412f4172332b6273584d2f747a4252336f41415142422f2f514245674b3941413841414263694a6a55524d784555466a4d794e6a6358426762495444755445516b46427759534443554d57307343492f33584678494241573046427741424145454141414d6441667741495141414d78457a467a4d324e6a4d79466863324e6a4d7946685552497845304a694d694278456a4554516d497949484555463443675166526a453151524d68536a465153354d64494355776b7830674a533842384541664c53736f496a46725866374d415345324b44442b735145684e6967772f7245414151424241414143414148384142514141444d524d78637a4e6a597a4d68595645534d524e43596a49675948455546344367516754544a52535a4d644942776f47414877507834746131332b7a4145684e69675a462f3678414141434143542f394149484166774144774162414141464969596d4e5451324e6a4d7946685956464159474a7a49324e54516d49794947465251574152592f62305245627a382f626b5245626a38744c6934744c69307444443131556c4e305054313055314a315058644e5145464d544546415451414141514242414141426a7748384142494141444d524d78637a4e6a597a4d6859584279596d497949474278464265416f454730776d4652774b4741305a4542773946414877567a49784251562f424151704d7637674141454146662f30415a38422f41416e414141584969596e4e7859574d7a49324e54516d4a696375416a55304e6a4d79466863484a69596a49685555466863654168555542744d785a795a43496a3866495234644c686f654f79687056546c58483049614e426f354f53596750536c6f4443596658426b6246784d5246684d4b444351354b5556574a7868594642596e47426b4f43794d354c6b4e64414141424142482f39414675416e5141467741414253496d4e54556a4e5463334d78557a46534d564642597a4d6a593346775947415142635430524d4558703364794d6444426b4b46784d3344477057795730476849527a78796f6c42675272426777414141454150502f304166674238414155414141584969593145544d524642597a4d6a593345544d524979636a4267625755556d54486941634a6861546541734448306f4d613130424e5037664e536b61485146492f6842464a5377414151414d2f7a34422f51487741427341414263694a6963334668597a4d6a59334e774d7a46785957467a4d324e6a63334d774d4f416e675749513861427849494a53674b42372b55527773534367514945516b386a6177584f452f43426752774151556b48526f42343955695269556a527950562f67732b56536f414141454151514141414e5142384141444141417a45544d52515a4d4238503451414145415350394e415367433377414e414141584a6959314e44593346775947465251574638772f5255552f584463794d6a657a5a393645684e356e4a6d485861327258596741424144442f545145514174384144514141467963324e6a55304a696333466859564641614d584467794d6a68635030564673795a69313270723132456d5a393645684e372f2f7741334141414133514c54416759414351414141414541502f2b6d414f6b423451414e414141584a6959314e445933467759474652515746356f724d4441725479496949694a61516f4a6157594a434944313951304e39506741424143502f7067444e4165454144514141467963324e6a55304a6963334668595646415a7a5543496949694a514b7938765769412b66554e4466543067516f4a5a576f4c2f2f77412f414b774136514c6e41676341474141414151622f2f77416a414b77417a514c6e41676341475141414151594141662b74416a6b4155774c5441417341414245694a6a55304e6a4d7946685555426955754c69556c4c6934434f536f6a49796f7149794d7141413d3d2920666f726d61742827747275657479706527293b7d5d5d3e3c2f7374796c653e3c2f7376673e4142434445464748494a4b4c4d4e4f505152535455565758595a6162636465666768696a6b6c6d6e6f707172737475767778797a303132333435363738392b2f3c7376672069643d27655932476a50376b355374312720786d6c6e733d27687474703a2f2f7777772e77332e6f72672f323030302f7376672720786d6c6e733a786c696e6b3d27687474703a2f2f7777772e77332e6f72672f313939392f786c696e6b272076696577426f783d27302030203531312e393939203531312e393939272073686170652d72656e646572696e673d2767656f6d6574726963507265636973696f6e2720746578742d72656e646572696e673d2767656f6d6574726963507265636973696f6e272077696474683d273531312e39393927206865696768743d273531312e393939273e3c7061746820643d274d3436302e3830332c3434362e373339682d3430392e3630364332322e3936372c3434362e3733392c302c3432332e3737322c302c3339352e353432762d3237392e30383543302c38382e3232372c32322e3936372c36352e32362c35312e3139372c36352e3236683430392e3630356332382e32332c302c35312e3139372c32322e3936372c35312e3139372c35312e313937763237392e303834632e3030312c32382e3233312d32322e3936362c35312e3139382d35312e3139362c35312e3139385a272066696c6c3d2723333961336462272f3e3c7061746820643d274d3436302e3830332c36352e3236682d3230342e383034763338312e343739683230342e3830326332382e32332c302c35312e3139372d32322e3936372c35312e3139372d35312e313937762d3237392e303835433531322c38382e3232372c3438392e3033332c36352e32362c3436302e3830332c36352e32365a272066696c6c3d2723333739376433272f3e3c7061746820643d274d3233372e3431332c3338312e313434682d3135362e313232632d31302e3236342c302d31382e3538362d382e3332322d31382e3538362d31382e353836762d3231332e31313963302d31302e3236342c382e3332322d31382e3538362c31382e3538362d31382e353836683135362e3132326331302e3236342c302c31382e3538362c382e3332322c31382e3538362c31382e353836763231332e31313963302c31302e3236362d382e33322c31382e3538362d31382e3538362c31382e3538365a272066696c6c3d2723383064306531272f3e3c673e3c636972636c6520723d2732372e32303427207472616e73666f726d3d277472616e736c617465283135392e333536203233372e33353529272066696c6c3d2723653866326662272f3e3c7061746820643d274d3136302e3431342c3238352e353539632d34302e3236312c302d37332e3330362c33302e392d37362e37312c37302e3237392d2e3331322c332e3631342c322e3535362c362e3732312c362e3138342c362e373231683134312e30353363332e3632382c302c362e3439362d332e3130362c362e3138342d362e3732312d332e3430352d33392e3337382d33362e3434392d37302e3237392d37362e3731312d37302e3237395a272066696c6c3d2723653866326662272f3e3c2f673e3c7061746820643d274d3433392e3030342c3233342e353836682d3134372e3138632d31302e3236342c302d31382e3538362d382e3332322d31382e3538362d31382e353836762d36362e35363163302d31302e3236342c382e3332322d31382e3538362c31382e3538362d31382e353836683134372e31386331302e3236342c302c31382e3538362c382e3332322c31382e3538362c31382e3538367636362e35363163302c31302e3236352d382e3332312c31382e3538362d31382e3538362c31382e3538365a27207472616e73666f726d3d276d617472697828312e30363537352030203020312e31353431362d32332e3134323833332d31342e37353032373829272066696c6c3d2723353162336461272f3e3c7061746820643d274d3433392e3030342c3238342e343937682d3134372e3138632d31302e3236342c302d31382e3538362d382e3332322d31382e3538362d31382e35383673382e3332322d31382e3538362c31382e3538362d31382e353836683134372e31386331302e3236342c302c31382e3538362c382e3332322c31382e3538362c31382e35383663302c31302e3236362d382e3332312c31382e3538362d31382e3538362c31382e3538365a27207472616e73666f726d3d276d617472697828312e3037353333312030203020312e3532363339352d32352e3736303732362d38312e38323632323129272066696c6c3d2723353162336461272f3e3c746578742064783d2730272064793d27302720666f6e742d66616d696c793d272671756f743b655932476a50376b355374313a3a3a536f757263652053616e732050726f2671756f743b2720666f6e742d73697a653d2732352e35393939352720666f6e742d7765696768743d2737303027207472616e73666f726d3d277472616e736c617465283237302e363036393738203138302e303431353529272066696c6c3d272366666627207374726f6b652d77696474683d2730273e3c747370616e20793d27302720666f6e742d7765696768743d2737303027207374726f6b652d77696474683d2730273e3c215b43444154415b4372656469742053797374656d5d5d3e3c2f747370616e3e3c747370616e20783d27302720793d2732352e35393939352720666f6e742d7765696768743d2737303027207374726f6b652d77696474683d2730273e3c215b43444154415b2020202020536f756c626f756e6420546f6b656e5d5d3e3c2f747370616e3e3c747370616e20783d27302720793d2735312e313939392720666f6e742d7765696768743d2737303027207374726f6b652d77696474683d2730273e3c215b43444154415b2020202020284353534254295d5d3e3c2f747370616e3e3c2f746578743e3c746578742064783d2730272064793d27302720666f6e742d66616d696c793d272671756f743b655932476a50376b355374313a3a3a536f757263652053616e732050726f2671756f743b2720666f6e742d73697a653d2732352e35393939352720666f6e742d7765696768743d2737303027207472616e73666f726d3d277472616e736c617465283239352e363933363739203333322e34343530393429272066696c6c3d272366666627207374726f6b652d77696474683d2730273e3c747370616e20793d27302720666f6e742d7765696768743d2737303027207374726f6b652d77696474683d2730273e3c215b43444154415b23a2646970667358221220df96b4c98d5a6ddc854dc77f2c0bb9a4040def571f5f16ce67e7f11ffc90c1ca64736f6c63430008130033",
  "immutableReferences": {},
  "source": "// SPDX-License-Identifier: MIT\npragma solidity >=0.4.22 <0.9.0;\nimport \"@openzeppelin/contracts/token/ERC721/ERC721.sol\";\nimport \"@openzeppelin/contracts/utils/Counters.sol\";\nimport \"@openzeppelin/contracts/utils/Base64.sol\";\nimport \"@openzeppelin/contracts/utils/Strings.sol\";\n// import \"./OnChainSVG.sol\";\n\ncontract SoulboundToken is ERC721 {\n    using Counters for Counters.Counter;\n    Counters.Counter private _tokenIds;\n\n    constructor() ERC721(\"Credit System SBT\", \"CS_SBT\") {}\n\n    function mint(address player) public returns (uint256) {\n        _tokenIds.increment();\n        uint256 newItemId = _tokenIds.current();\n        _mint(player, newItemId);\n\n        return newItemId;\n    }\n\n    function _beforeTokenTransfer(address from, address to, uint256 firstTokenId, uint256 batchSize) internal virtual override {\n        require(from == address(0) || to == address(0), \"SOULBOUND: Non-Transferable.\");\n        require(balanceOf(to)==0, \"SOULBOUND: Everyone should only have 1 SBT.\");\n        super._beforeTokenTransfer(from, to, firstTokenId, batchSize);\n    }\n\n    function tokenURI(uint256 tokenId) public view virtual override returns (string memory) {\n        _requireMinted(tokenId);\n\n        string memory json = Base64.encode(\n            bytes(\n                string(\n                    abi.encodePacked(\n                        '{\"name\": \"Credit System Soulbound Token (CSSBT) #',\n                        Strings.toString(tokenId),\n                        '\",',\n                        '\"image_data\": \"',\n                        getSvgImage(tokenId),\n                        '\"',\n                        \"}\"\n                    )\n                )   \n            )\n        );\n        return string(abi.encodePacked(\"data:application/json;base64,\", json));\n    }\n\n    function getSvgImage(uint uid) private pure returns (string memory){\n        string memory uid_str = Strings.toString(uid);\n        string memory a = \"<svg id='eY2GjP7k5St1' xmlns='http://www.w3.org/2000/svg' xmlns:xlink='http://www.w3.org/1999/xlink' viewBox='0 0 511.999 511.999' shape-rendering='geometricPrecision' text-rendering='geometricPrecision' width='511.999' height='511.999'><path d='M460.803,446.739h-409.606C22.967,446.739,0,423.772,0,395.542v-279.085C0,88.227,22.967,65.26,51.197,65.26h409.605c28.23,0,51.197,22.967,51.197,51.197v279.084c.001,28.231-22.966,51.198-51.196,51.198Z' fill='#39a3db'/><path d='M460.803,65.26h-204.804v381.479h204.802c28.23,0,51.197-22.967,51.197-51.197v-279.085C512,88.227,489.033,65.26,460.803,65.26Z' fill='#3797d3'/><path d='M237.413,381.144h-156.122c-10.264,0-18.586-8.322-18.586-18.586v-213.119c0-10.264,8.322-18.586,18.586-18.586h156.122c10.264,0,18.586,8.322,18.586,18.586v213.119c0,10.266-8.32,18.586-18.586,18.586Z' fill='#80d0e1'/><g><circle r='27.204' transform='translate(159.356 237.355)' fill='#e8f2fb'/><path d='M160.414,285.559c-40.261,0-73.306,30.9-76.71,70.279-.312,3.614,2.556,6.721,6.184,6.721h141.053c3.628,0,6.496-3.106,6.184-6.721-3.405-39.378-36.449-70.279-76.711-70.279Z' fill='#e8f2fb'/></g><path d='M439.004,234.586h-147.18c-10.264,0-18.586-8.322-18.586-18.586v-66.561c0-10.264,8.322-18.586,18.586-18.586h147.18c10.264,0,18.586,8.322,18.586,18.586v66.561c0,10.265-8.321,18.586-18.586,18.586Z' transform='matrix(1.06575 0 0 1.15416-23.142833-14.750278)' fill='#51b3da'/><path d='M439.004,284.497h-147.18c-10.264,0-18.586-8.322-18.586-18.586s8.322-18.586,18.586-18.586h147.18c10.264,0,18.586,8.322,18.586,18.586c0,10.266-8.321,18.586-18.586,18.586Z' transform='matrix(1.075331 0 0 1.526395-25.760726-81.826221)' fill='#51b3da'/><text dx='0' dy='0' font-family='&quot;eY2GjP7k5St1:::Source Sans Pro&quot;' font-size='25.59995' font-weight='700' transform='translate(270.606978 180.04155)' fill='#fff' stroke-width='0'><tspan y='0' font-weight='700' stroke-width='0'><![CDATA[Credit System]]></tspan><tspan x='0' y='25.59995' font-weight='700' stroke-width='0'><![CDATA[     Soulbound Token]]></tspan><tspan x='0' y='51.1999' font-weight='700' stroke-width='0'><![CDATA[     (CSSBT)]]></tspan></text><text dx='0' dy='0' font-family='&quot;eY2GjP7k5St1:::Source Sans Pro&quot;' font-size='25.59995' font-weight='700' transform='translate(295.693679 332.445094)' fill='#fff' stroke-width='0'><tspan y='0' font-weight='700' stroke-width='0'><![CDATA[#\";\n        string memory b =  \"]]></tspan></text><style><![CDATA[@font-face {font-family: 'eY2GjP7k5St1:::Source Sans Pro';font-style: normal;font-weight: 700;src: url(data:font/ttf;charset=utf-8;base64,AAEAAAANAIAAAwBQR0RFRgASABQAAADcAAAAFkdQT1NSDkG3AAAHaAAAAxxHU1VCZnU2hwAAAyQAAAHIT1MvMlxBdq4AAAHMAAAAYGNtYXACEAM5AAACoAAAAIRnbHlmnhEfvQAACoQAAAdQaGVhZBt/HtQAAAFYAAAANmhoZWEKfwXcAAABNAAAACRobXR4MR0FAgAAAiwAAAB0bG9jYR2gH9YAAAGQAAAAPG1heHAANQD3AAAA9AAAACBuYW1lUuZu3gAABOwAAAJ8cG9zdP/RADIAAAEUAAAAIAABAAAADAAAAAAAAAACAAEAAgATAAEAAAABAAAAHQCQAAwAYwAHAAEAAAAAAAAAAAAAAAAABAADAAMAAAAAAAD/zgAyAAAAAAAAAAAAAAAAAAAAAAAAAAAAAQAAA9j+7wAACJj+N/43CG0AAQAAAAAAAAAAAAAAAAAAAB0AAQAAAAILhdZt845fDzz1AAED6AAAAADYXaCEAAAAAN1mLzb+N/7ECG0D8QABAAMAAgAAAAAAAAAAACwALABgAIwAzADdAQ4BQAFzAX8BlwGzAeUCBwIzAlMCjgKzAtUDBAMQAyoDRANMA2YDgAOJA5IDqAADAioCvAAFAAACigJYAAAASwKKAlgAAAFeADIBKQAAAgsHAwMEAwICBAAAACcAAAADAAAAAAAAAABBREJPACAAIP7/Au7/BgAAA9gBESAAAZ8AAAAAAfAClAAAACAAAwKyAFAAyAAAAl0ATQJGAC4CLAAjAiwAGQI9AEECPQAnAgYAJAEUADcCJABBAR4AQQNZAEECPABBAisAJAGOAEEBuwAVAX8AEQI4ADwCCQAMARQAQQFYAEgBWAAwARQANwEMAD8BDAAjAQwAPwEMACMAAP+tAAAAAgAAAAMAAAAUAAMAAQAAABQABABwAAAAGAAQAAMACAAgACkAQwBUAGIAZQBpAG8AdQB5AKD//wAAACAAKABCAFMAYgBkAGkAawByAHkAoP///+H/7f/A/7H/pP+j/6D/n/+d/5r/YQABAAAAAAAAAAAAAAAAAAAAAAAAAAAAAAAAAAEAAAAKAKABTAAEREZMVACGY3lybAB2Z3JlawBmbGF0bgAaAEAAA0FaRSAAMkNSVCAAJFRSSyAAFgAA//8ABAAGAA0AEAAXAAD//wAEAAUADAAPABYAAP//AAQABAALAA4AFQAA//8AAwADAAoAFAAEAAAAAP//AAMAAgAJABMABAAAAAD//wADAAEACAASAAQAAAAA//8AAwAAAAcAEQAYZG5vbQCmZG5vbQCmZG5vbQCmZG5vbQCmZG5vbQCmZG5vbQCmZG5vbQCmZnJhYwCeZnJhYwCeZnJhYwCeZnJhYwCeZnJhYwCeZnJhYwCeZnJhYwCebG9jbACYbG9jbACYbG9jbACYbnVtcgCSbnVtcgCSbnVtcgCSbnVtcgCSbnVtcgCSbnVtcgCSbnVtcgCSAAAAAQABAAAAAQAAAAAAAgABAAMAAAABAAIABQBoAFIARAAaAAwAAQAAAAEACAABACD//gAGAAAAAQAIAAMAAQAaAAEAEgAAAAEAAAAEAAEAAgAaABsAAQACABgAGQABAAAAAQAIAAEAFAADAAEAAAABAAgAAQAGAAUAAQACABUAFgABAAAAAQAIAAEABgAOAAEAAQAJAAAACABmAAMAAQQJAAAAxgFQAAMAAQQJAAEAHgEyAAMAAQQJAAIACAEqAAMAAQQJAAMARgDkAAMAAQQJAAQAKAC8AAMAAQQJAAUAZABYAAMAAQQJAAYAJAA0AAMAAQQJAA4ANAAAAGgAdAB0AHAAOgAvAC8AcwBjAHIAaQBwAHQAcwAuAHMAaQBsAC4AbwByAGcALwBPAEYATABTAG8AdQByAGMAZQBTAGEAbgBzAFAAcgBvAC0AQgBvAGwAZABWAGUAcgBzAGkAbwBuACAAMgAuADAANAA1ADsAaABvAHQAYwBvAG4AdgAgADEALgAwAC4AMQAwADkAOwBtAGEAawBlAG8AdABmAGUAeABlACAAMgAuADUALgA2ADUANQA5ADYAUwBvAHUAcgBjAGUAIABTAGEAbgBzACAAUAByAG8AIABCAG8AbABkADIALgAwADQANQA7AEEARABCAE8AOwBTAG8AdQByAGMAZQBTAGEAbgBzAFAAcgBvAC0AQgBvAGwAZAA7AEEARABPAEIARQBCAG8AbABkAFMAbwB1AHIAYwBlACAAUwBhAG4AcwAgAFAAcgBvAKkAIAAyADAAMQAwACAALQAgADIAMAAxADgAIABBAGQAbwBiAGUAIABTAHkAcwB0AGUAbQBzACAASQBuAGMAbwByAHAAbwByAGEAdABlAGQAIAAoAGgAdAB0AHAAOgAvAC8AdwB3AHcALgBhAGQAbwBiAGUALgBjAG8AbQAvACkALAAgAHcAaQB0AGgAIABSAGUAcwBlAHIAdgBlAGQAIABGAG8AbgB0ACAATgBhAG0AZQAgIBgAUwBvAHUAcgBjAGUgGQAuAAEAAAAKAFQAdAAEREZMVAA+Y3lybAAyZ3JlawAmbGF0bgAaAAQAAAAA//8AAQADAAQAAAAA//8AAQACAAQAAAAA//8AAQABAAQAAAAA//8AAQAAAARrZXJuABprZXJuABprZXJuABprZXJuABoAAAABAAAAAQAEAAkAAAACAbIACgABAAIAAAAIAAIBMAAEAAABdgFGAAwADAAA/+T/3f/L/+4AAAAAAAAAAAAAAAAAAAAAAAAAAAAAAAAAAAAAAAAAAAAAAAAAAAAAAAAAAP/kAAAAAAAAAAAAAAAAAAAAAAAAAAD/5v/FAAAAAAAA//gAAP/7AAAAAAAA//YAAAAAAAAAAAAAAAcAAP/4AAAAAAAAAAD/7P/kAAAAAAAAAAAAAAAAAAAAAAAAAAD/5P/sAAAAAP/uAAAAAAAAAAAAAAAA/+7/7P/uAAAAAAAAAAAAAP/2AAAAAAAA/7T/9AAA/9b/5P/n/+gAAP/E/9YAAAAAAAAAAP/sAAAAAAAAAAAAAAAAAAAAAAAA//gAAP/sAAAAAAAAAAAAAAAAAAAAAAAAAAAAAAAAAAAAAAAAAAAAAAAAAAAAAAACAAMABAAGAAAACgATAAMAFQAVAA0AAQADABUABQAGAAMAAAABAAEACwAAAAAACgAKAAEACgAJAAIABAAHAAAAAAAIAAsAAQAEABIABgAIAAMAAAAAAAAAAAABAAIAAgADAAQABQAHAAkACgAAAAsAAQACAAAACAACAIgABAAAAMgAmAAFAAwAAAAA//b/5AAAAAD/7v/uAAAAAAAAAAAAAAAA/9z/9P/bAAD/7v/kAAD/9gAAAAAAAAAAAAAAAAAAAAAAAAAAAAAAAAAAAAAAAAAA//b/5AAAAAD/+v/sAAAAAAAAAAAAAAAAAAAAAAAAAAAAAAAAAAAAAAAAAAAAAQAGAAIAAwAHAAgACQAXAAEAAwAVAAQABwADAAAACAAIAAoAAAAAAAsACwAIAAsABQACAAkABgAAAAAAAQAKAAIABQADAAMAAQAHAAcAAgAIAAgAAwAJAAkABAAXABcABAAFAFAAAAJiApQAAwAJAA8AEgAVAAAzESERJTMnJyMHNzM3NyMXAzcnAREHUAIS/qWkJykEKSkEKiCYH3pfXwFNXgKU/WxbTWJi9l87O/6eubr+jQFzugAAAwBNAAACPAKMABEAGgAiAAAzETMyFhYVFAYHFRYWFRQGBiMDMzI2NTQmIyMRMzI1NCYjI03fRGxALSgyQ0RyR19FNjEyNEZTeTw9UwKMHUY/K1MPBA1LQUNUKQGHKiMmIP5YWCslAAABAC7/9AIwApgAGwAABSImJjU0NjYzMhYXByYmIyIGBhUUFjMyNjcXBgFdUopTVY1SP2QhThk3IyxJK1ZIKD8YTlIMTJVtbJlRMyJeFx0yXkJkcCQZXGAAAQAj//QCCgKYACoAAAUiJic3FhYzMjY1NCYnJy4CNTQ2NjMyFhcHJiYjIgYVFBYXFxYWFRQGBgEUQH8yVCNWKC4tMytVITwmO2lEOHAqSyBAJyYtOSpUO0Y6bgwwLmUeJiIdHx0SJA4vRi82WDQsKl0ZGx8cHh4RIhhURTZcOAABABkAAAITAowABwAAMxEjNSEVIxHMswH6swIQfHz98AAAAgBB//QCFgK9ABQAHwAABSImJyMHIxEzFQc2NjMyFhYVFAYGJzI2NTQjIgcVFhYBRSFDHQQMc5MEHUQiPFgvPF9YJjZWLCkUKAwhIDUCvaxMGh0+cUxVeT94RkyGLcsSDgACACf/9AH8Ar0AEwAgAAAXIiY1NDY2MzIWFyc1MxEjJyMGBjcyNjc1JiYjIgYVFBbyXG87XzQpOBkGk3gKBBpGAhgnEhMrFCM2LwyLeVF1PhwYTKn9QzEaI3gUGcsSDkNHSUUAAgAk//QB4QH8ABgAHwAABSImJjU0NjYzMhYWFRQGByEWFjMyNxcGBgMzNCYjIgYBH0dyQkNsO0ddLwQC/tcKRjE1NjEmXpqzJywiNgw+dFJRdD8/a0QTJQk2MyFZGh4BOik1LwD//wA3AAAA3QLTAiYAFAAAAAcAHACKAAAAAQBBAAACHgK9AAwAADMRMxEzNzMHEyMnBxVBjwSdoK67n3A/Ar3+bsXM/tzBR3oAAQBB//QBEgK9AA8AABciJjURMxEUFjMyNjcXBgbITDuTEQkFBwYSDCUMW0sCI/3XFxIBAW0FBwABAEEAAAMdAfwAIQAAMxEzFzM2NjMyFhc2NjMyFhURIxE0JiMiBxEjETQmIyIHEUF4CgQfRjE1QRMhSjFQS5MdICUwkx0gJS8B8EAfLSsoIjFrXf7MASE2KDD+sQEhNigw/rEAAQBBAAACAAH8ABQAADMRMxczNjYzMhYVESMRNCYjIgYHEUF4CgQgTTJRSZMdIBwoGAHwPx4ta13+zAEhNigZF/6xAAACACT/9AIHAfwADwAbAAAFIiYmNTQ2NjMyFhYVFAYGJzI2NTQmIyIGFRQWARY/b0REbz8/bkREbj8tLi4tLi0tDD11UlN0PT10U1J1PXdNQEFMTEFATQAAAQBBAAABjwH8ABIAADMRMxczNjYzMhYXByYmIyIGBxFBeAoEG0wmFRwKGA0ZEBw9FAHwVzIxBQV/BAQpMv7gAAEAFf/0AZ8B/AAnAAAXIiYnNxYWMzI2NTQmJicuAjU0NjMyFhcHJiYjIhUUFhceAhUUBtMxZyZCIj8fIR4dLhoeOyhpVTlXH0IaNBo5OSYgPSloDCYfXBkbFxMRFhMKDCQ5KUVWJxhYFBYnGBkOCyM5LkNdAAABABH/9AFuAnQAFwAABSImNTUjNTc3MxUzFSMVFBYzMjY3FwYGAQBcT0RMEXp3dyMdDBkKFxM3DGpWyW0GhIRzxyolBgRrBgwAAAEAPP/0AfgB8AAUAAAXIiY1ETMRFBYzMjY3ETMRIycjBgbWUUmTHiAcJhaTeAsDH0oMa10BNP7fNSkaHQFI/hBFJSwAAQAM/z4B/QHwABsAABciJic3FhYzMjY3NwMzFxYWFzM2Njc3MwMOAngWIQ8aBxIIJSgKB7+URwsSCgQIEQk8jawXOE/CBgRwAQUkHRoB49UiRiUjRyPV/gs+VSoAAAEAQQAAANQB8AADAAAzETMRQZMB8P4QAAEASP9NASgC3wANAAAXJiY1NDY3FwYGFRQWF8w/RUU/XDcyMjezZ96EhN5nJmHXa2rXYgABADD/TQEQAt8ADQAAFyc2NjU0Jic3FhYVFAaMXDgyMjhcP0VFsyZi12pr12EmZ96EhN7//wA3AAAA3QLTAgYACQAAAAEAP/+mAOkB4QANAAAXJiY1NDY3FwYGFRQWF5orMDArTyIiIiJaQoJaWYJCID19Q0N9PgABACP/pgDNAeEADQAAFyc2NjU0Jic3FhYVFAZzUCIiIiJQKy8vWiA+fUNDfT0gQoJZWoL//wA/AKwA6QLnAgcAGAAAAQb//wAjAKwAzQLnAgcAGQAAAQYAAf+tAjkAUwLTAAsAABEiJjU0NjMyFhUUBiUuLiUlLi4COSojIyoqIyMqAA==) format('truetype');}]]></style></svg>\";\n        return string(abi.encodePacked(a, uid_str, b));\n    }\n\n}",
  "sourcePath": "/home/snsd0805/code/1112_blockchain/Final/contracts/SoulboundToken.sol",
  "compiler": {
    "name": "solc",
    "version": "0.8.19+commit.7dd6d404.Emscripten.clang"
  },
  "schemaVersion": "3.4.13",
  "updatedAt": "2023-06-04T12:30:53.515Z",
  "networkType": "ethereum",
  "devdoc": {
    "events": {
      "Approval(address,address,uint256)": {
        "details": "Emitted when `owner` enables `approved` to manage the `tokenId` token."
      },
      "ApprovalForAll(address,address,bool)": {
        "details": "Emitted when `owner` enables or disables (`approved`) `operator` to manage all of its assets."
      },
      "Transfer(address,address,uint256)": {
        "details": "Emitted when `tokenId` token is transferred from `from` to `to`."
      }
    },
    "kind": "dev",
    "methods": {
      "approve(address,uint256)": {
        "details": "See {IERC721-approve}."
      },
      "balanceOf(address)": {
        "details": "See {IERC721-balanceOf}."
      },
      "getApproved(uint256)": {
        "details": "See {IERC721-getApproved}."
      },
      "isApprovedForAll(address,address)": {
        "details": "See {IERC721-isApprovedForAll}."
      },
      "name()": {
        "details": "See {IERC721Metadata-name}."
      },
      "ownerOf(uint256)": {
        "details": "See {IERC721-ownerOf}."
      },
      "safeTransferFrom(address,address,uint256)": {
        "details": "See {IERC721-safeTransferFrom}."
      },
      "safeTransferFrom(address,address,uint256,bytes)": {
        "details": "See {IERC721-safeTransferFrom}."
      },
      "setApprovalForAll(address,bool)": {
        "details": "See {IERC721-setApprovalForAll}."
      },
      "supportsInterface(bytes4)": {
        "details": "See {IERC165-supportsInterface}."
      },
      "symbol()": {
        "details": "See {IERC721Metadata-symbol}."
      },
      "tokenURI(uint256)": {
        "details": "See {IERC721Metadata-tokenURI}."
      },
      "transferFrom(address,address,uint256)": {
        "details": "See {IERC721-transferFrom}."
      }
    },
    "version": 1
  },
  "userdoc": {
    "kind": "user",
    "methods": {},
    "version": 1
  }
}